{
  "_format": "hh-sol-artifact-1",
  "contractName": "ERC721R",
  "sourceName": "contracts/ERC721.sol",
  "abi": [
    {
      "inputs": [
        {
          "internalType": "string",
          "name": "name_",
          "type": "string"
        },
        {
          "internalType": "string",
          "name": "symbol_",
          "type": "string"
        },
        {
          "internalType": "uint256",
          "name": "_collectionSize",
          "type": "uint256"
        },
        {
          "internalType": "uint256",
          "name": "_maxMintPerAddress",
          "type": "uint256"
        },
        {
          "internalType": "uint256",
          "name": "_mintStartTime",
          "type": "uint256"
        },
        {
          "internalType": "uint256",
          "name": "_mintEndTime",
          "type": "uint256"
        },
        {
          "internalType": "uint256",
          "name": "_mintPrice",
          "type": "uint256"
        },
        {
          "internalType": "string",
          "name": "baseURI_",
          "type": "string"
        }
      ],
      "stateMutability": "nonpayable",
      "type": "constructor"
    },
    {
      "anonymous": false,
      "inputs": [
        {
          "indexed": true,
          "internalType": "address",
          "name": "owner",
          "type": "address"
        },
        {
          "indexed": true,
          "internalType": "address",
          "name": "approved",
          "type": "address"
        },
        {
          "indexed": true,
          "internalType": "uint256",
          "name": "tokenId",
          "type": "uint256"
        }
      ],
      "name": "Approval",
      "type": "event"
    },
    {
      "anonymous": false,
      "inputs": [
        {
          "indexed": true,
          "internalType": "address",
          "name": "owner",
          "type": "address"
        },
        {
          "indexed": true,
          "internalType": "address",
          "name": "operator",
          "type": "address"
        },
        {
          "indexed": false,
          "internalType": "bool",
          "name": "approved",
          "type": "bool"
        }
      ],
      "name": "ApprovalForAll",
      "type": "event"
    },
    {
      "anonymous": false,
      "inputs": [
        {
          "indexed": true,
          "internalType": "address",
          "name": "previousOwner",
          "type": "address"
        },
        {
          "indexed": true,
          "internalType": "address",
          "name": "newOwner",
          "type": "address"
        }
      ],
      "name": "OwnershipTransferred",
      "type": "event"
    },
    {
      "anonymous": false,
      "inputs": [
        {
          "indexed": true,
          "internalType": "address",
          "name": "from",
          "type": "address"
        },
        {
          "indexed": true,
          "internalType": "address",
          "name": "to",
          "type": "address"
        },
        {
          "indexed": true,
          "internalType": "uint256",
          "name": "tokenId",
          "type": "uint256"
        }
      ],
      "name": "Transfer",
      "type": "event"
    },
    {
      "stateMutability": "payable",
      "type": "fallback"
    },
    {
      "inputs": [],
      "name": "addMoneyToPool",
      "outputs": [],
      "stateMutability": "payable",
      "type": "function"
    },
    {
      "inputs": [
        {
          "internalType": "address",
          "name": "to",
          "type": "address"
        },
        {
          "internalType": "uint256",
          "name": "tokenId",
          "type": "uint256"
        }
      ],
      "name": "approve",
      "outputs": [],
      "stateMutability": "nonpayable",
      "type": "function"
    },
    {
      "inputs": [
        {
          "internalType": "address",
          "name": "owner",
          "type": "address"
        }
      ],
      "name": "balanceOf",
      "outputs": [
        {
          "internalType": "uint256",
          "name": "",
          "type": "uint256"
        }
      ],
      "stateMutability": "view",
      "type": "function"
    },
    {
      "inputs": [],
      "name": "claimRefund",
      "outputs": [],
      "stateMutability": "nonpayable",
      "type": "function"
    },
    {
      "inputs": [
        {
          "internalType": "uint256",
          "name": "tokenId",
          "type": "uint256"
        }
      ],
      "name": "getApproved",
      "outputs": [
        {
          "internalType": "address",
          "name": "",
          "type": "address"
        }
      ],
      "stateMutability": "view",
      "type": "function"
    },
    {
      "inputs": [
        {
          "internalType": "address",
          "name": "owner",
          "type": "address"
        },
        {
          "internalType": "address",
          "name": "operator",
          "type": "address"
        }
      ],
      "name": "isApprovedForAll",
      "outputs": [
        {
          "internalType": "bool",
          "name": "",
          "type": "bool"
        }
      ],
      "stateMutability": "view",
      "type": "function"
    },
    {
      "inputs": [
        {
          "internalType": "address",
          "name": "to",
          "type": "address"
        },
        {
          "internalType": "uint256",
          "name": "quantity",
          "type": "uint256"
        }
      ],
      "name": "mint",
      "outputs": [],
      "stateMutability": "payable",
      "type": "function"
    },
    {
      "inputs": [],
      "name": "name",
      "outputs": [
        {
          "internalType": "string",
          "name": "",
          "type": "string"
        }
      ],
      "stateMutability": "view",
      "type": "function"
    },
    {
      "inputs": [],
      "name": "owner",
      "outputs": [
        {
          "internalType": "address",
          "name": "",
          "type": "address"
        }
      ],
      "stateMutability": "view",
      "type": "function"
    },
    {
      "inputs": [
        {
          "internalType": "uint256",
          "name": "tokenId",
          "type": "uint256"
        }
      ],
      "name": "ownerOf",
      "outputs": [
        {
          "internalType": "address",
          "name": "",
          "type": "address"
        }
      ],
      "stateMutability": "view",
      "type": "function"
    },
    {
      "inputs": [],
      "name": "renounceOwnership",
      "outputs": [],
      "stateMutability": "nonpayable",
      "type": "function"
    },
    {
      "inputs": [
        {
          "internalType": "address",
          "name": "from",
          "type": "address"
        },
        {
          "internalType": "address",
          "name": "to",
          "type": "address"
        },
        {
          "internalType": "uint256",
          "name": "tokenId",
          "type": "uint256"
        }
      ],
      "name": "safeTransferFrom",
      "outputs": [],
      "stateMutability": "nonpayable",
      "type": "function"
    },
    {
      "inputs": [
        {
          "internalType": "address",
          "name": "from",
          "type": "address"
        },
        {
          "internalType": "address",
          "name": "to",
          "type": "address"
        },
        {
          "internalType": "uint256",
          "name": "tokenId",
          "type": "uint256"
        },
        {
          "internalType": "bytes",
          "name": "_data",
          "type": "bytes"
        }
      ],
      "name": "safeTransferFrom",
      "outputs": [],
      "stateMutability": "nonpayable",
      "type": "function"
    },
    {
      "inputs": [
        {
          "internalType": "address",
          "name": "operator",
          "type": "address"
        },
        {
          "internalType": "bool",
          "name": "approved",
          "type": "bool"
        }
      ],
      "name": "setApprovalForAll",
      "outputs": [],
      "stateMutability": "nonpayable",
      "type": "function"
    },
    {
      "inputs": [
        {
          "internalType": "string",
          "name": "_baseUri",
          "type": "string"
        }
      ],
      "name": "setBaseURI",
      "outputs": [],
      "stateMutability": "nonpayable",
      "type": "function"
    },
    {
      "inputs": [
        {
          "internalType": "bytes4",
          "name": "interfaceId",
          "type": "bytes4"
        }
      ],
      "name": "supportsInterface",
      "outputs": [
        {
          "internalType": "bool",
          "name": "",
          "type": "bool"
        }
      ],
      "stateMutability": "view",
      "type": "function"
    },
    {
      "inputs": [],
      "name": "symbol",
      "outputs": [
        {
          "internalType": "string",
          "name": "",
          "type": "string"
        }
      ],
      "stateMutability": "view",
      "type": "function"
    },
    {
      "inputs": [
        {
          "internalType": "uint256",
          "name": "index",
          "type": "uint256"
        }
      ],
      "name": "tokenByIndex",
      "outputs": [
        {
          "internalType": "uint256",
          "name": "",
          "type": "uint256"
        }
      ],
      "stateMutability": "view",
      "type": "function"
    },
    {
      "inputs": [
        {
          "internalType": "address",
          "name": "owner",
          "type": "address"
        },
        {
          "internalType": "uint256",
          "name": "index",
          "type": "uint256"
        }
      ],
      "name": "tokenOfOwnerByIndex",
      "outputs": [
        {
          "internalType": "uint256",
          "name": "",
          "type": "uint256"
        }
      ],
      "stateMutability": "view",
      "type": "function"
    },
    {
      "inputs": [
        {
          "internalType": "uint256",
          "name": "tokenId",
          "type": "uint256"
        }
      ],
      "name": "tokenURI",
      "outputs": [
        {
          "internalType": "string",
          "name": "",
          "type": "string"
        }
      ],
      "stateMutability": "view",
      "type": "function"
    },
    {
      "inputs": [],
      "name": "totalSupply",
      "outputs": [
        {
          "internalType": "uint256",
          "name": "",
          "type": "uint256"
        }
      ],
      "stateMutability": "view",
      "type": "function"
    },
    {
      "inputs": [
        {
          "internalType": "address",
          "name": "from",
          "type": "address"
        },
        {
          "internalType": "address",
          "name": "to",
          "type": "address"
        },
        {
          "internalType": "uint256",
          "name": "tokenId",
          "type": "uint256"
        }
      ],
      "name": "transferFrom",
      "outputs": [],
      "stateMutability": "nonpayable",
      "type": "function"
    },
    {
      "inputs": [
        {
          "internalType": "address",
          "name": "newOwner",
          "type": "address"
        }
      ],
      "name": "transferOwnership",
      "outputs": [],
      "stateMutability": "nonpayable",
      "type": "function"
    },
    {
      "inputs": [],
      "name": "withdraw",
      "outputs": [],
      "stateMutability": "view",
      "type": "function"
    }
  ],
  "bytecode": "0x608060405260646003553480156200001657600080fd5b50604051620040c4380380620040c483398181016040528101906200003c9190620002ea565b6200005c62000050620000e560201b60201c565b620000ed60201b60201c565b8383116200006957600080fd5b876002908051906020019062000081929190620001b1565b5086600a90805190602001906200009a929190620001b1565b5083600481905550856005819055508260068190555081600781905550846010819055508060099080519060200190620000d6929190620001b1565b5050505050505050506200058c565b600033905090565b60008060009054906101000a900473ffffffffffffffffffffffffffffffffffffffff169050816000806101000a81548173ffffffffffffffffffffffffffffffffffffffff021916908373ffffffffffffffffffffffffffffffffffffffff1602179055508173ffffffffffffffffffffffffffffffffffffffff168173ffffffffffffffffffffffffffffffffffffffff167f8be0079c531659141344cd1fd0a4f28419497f9722a3daafe3b4186f6b6457e060405160405180910390a35050565b828054620001bf9062000497565b90600052602060002090601f016020900481019282620001e357600085556200022f565b82601f10620001fe57805160ff19168380011785556200022f565b828001600101855582156200022f579182015b828111156200022e57825182559160200191906001019062000211565b5b5090506200023e919062000242565b5090565b5b808211156200025d57600081600090555060010162000243565b5090565b600062000278620002728462000421565b620003f8565b9050828152602081018484840111156200029157600080fd5b6200029e84828562000461565b509392505050565b600082601f830112620002b857600080fd5b8151620002ca84826020860162000261565b91505092915050565b600081519050620002e48162000572565b92915050565b600080600080600080600080610100898b0312156200030857600080fd5b600089015167ffffffffffffffff8111156200032357600080fd5b620003318b828c01620002a6565b985050602089015167ffffffffffffffff8111156200034f57600080fd5b6200035d8b828c01620002a6565b9750506040620003708b828c01620002d3565b9650506060620003838b828c01620002d3565b9550506080620003968b828c01620002d3565b94505060a0620003a98b828c01620002d3565b93505060c0620003bc8b828c01620002d3565b92505060e089015167ffffffffffffffff811115620003da57600080fd5b620003e88b828c01620002a6565b9150509295985092959890939650565b60006200040462000417565b9050620004128282620004cd565b919050565b6000604051905090565b600067ffffffffffffffff8211156200043f576200043e62000532565b5b6200044a8262000561565b9050602081019050919050565b6000819050919050565b60005b838110156200048157808201518184015260208101905062000464565b8381111562000491576000848401525b50505050565b60006002820490506001821680620004b057607f821691505b60208210811415620004c757620004c662000503565b5b50919050565b620004d88262000561565b810181811067ffffffffffffffff82111715620004fa57620004f962000532565b5b80604052505050565b7f4e487b7100000000000000000000000000000000000000000000000000000000600052602260045260246000fd5b7f4e487b7100000000000000000000000000000000000000000000000000000000600052604160045260246000fd5b6000601f19601f8301169050919050565b6200057d8162000457565b81146200058957600080fd5b50565b613b28806200059c6000396000f3fe60806040526004361061014f5760003560e01c80636352211e116100b6578063b0b67c0c1161006f578063b0b67c0c1461049c578063b5545a3c146104a6578063b88d4fde146104bd578063c87b56dd146104e6578063e985e9c514610523578063f2fde38b1461056057610150565b80636352211e1461038c57806370a08231146103c9578063715018a6146104065780638da5cb5b1461041d57806395d89b4114610448578063a22cb4651461047357610150565b80632f745c59116101085780632f745c591461028d5780633ccfd60b146102ca57806340c10f19146102e157806342842e0e146102fd5780634f6ccce71461032657806355f804b31461036357610150565b806301ffc9a71461016b57806306fdde03146101a8578063081812fc146101d3578063095ea7b31461021057806318160ddd1461023957806323b872dd1461026457610150565b5b346008600082825461016291906133f9565b92505081905550005b34801561017757600080fd5b50610192600480360381019061018d9190612ca5565b610589565b60405161019f91906130f7565b60405180910390f35b3480156101b457600080fd5b506101bd6106d3565b6040516101ca9190613112565b60405180910390f35b3480156101df57600080fd5b506101fa60048036038101906101f59190612d38565b610765565b6040516102079190613090565b60405180910390f35b34801561021c57600080fd5b5061023760048036038101906102329190612c69565b6107ea565b005b34801561024557600080fd5b5061024e610907565b60405161025b9190613314565b60405180910390f35b34801561027057600080fd5b5061028b60048036038101906102869190612b63565b610911565b005b34801561029957600080fd5b506102b460048036038101906102af9190612c69565b610921565b6040516102c19190613314565b60405180910390f35b3480156102d657600080fd5b506102df610b11565b005b6102fb60048036038101906102f69190612c69565b610c2d565b005b34801561030957600080fd5b50610324600480360381019061031f9190612b63565b610de6565b005b34801561033257600080fd5b5061034d60048036038101906103489190612d38565b610e06565b60405161035a9190613314565b60405180910390f35b34801561036f57600080fd5b5061038a60048036038101906103859190612cf7565b610e59565b005b34801561039857600080fd5b506103b360048036038101906103ae9190612d38565b610eef565b6040516103c09190613090565b60405180910390f35b3480156103d557600080fd5b506103f060048036038101906103eb9190612afe565b610f05565b6040516103fd9190613314565b60405180910390f35b34801561041257600080fd5b5061041b610fee565b005b34801561042957600080fd5b50610432611076565b60405161043f9190613090565b60405180910390f35b34801561045457600080fd5b5061045d61109f565b60405161046a9190613112565b60405180910390f35b34801561047f57600080fd5b5061049a60048036038101906104959190612c2d565b611131565b005b6104a46112b2565b005b3480156104b257600080fd5b506104bb611310565b005b3480156104c957600080fd5b506104e460048036038101906104df9190612bb2565b61153c565b005b3480156104f257600080fd5b5061050d60048036038101906105089190612d38565b611598565b60405161051a9190613112565b60405180910390f35b34801561052f57600080fd5b5061054a60048036038101906105459190612b27565b611640565b60405161055791906130f7565b60405180910390f35b34801561056c57600080fd5b5061058760048036038101906105829190612afe565b6116d4565b005b60007f80ac58cd000000000000000000000000000000000000000000000000000000007bffffffffffffffffffffffffffffffffffffffffffffffffffffffff1916827bffffffffffffffffffffffffffffffffffffffffffffffffffffffff1916148061065457507f5b5e139f000000000000000000000000000000000000000000000000000000007bffffffffffffffffffffffffffffffffffffffffffffffffffffffff1916827bffffffffffffffffffffffffffffffffffffffffffffffffffffffff1916145b806106bc57507f780e9d63000000000000000000000000000000000000000000000000000000007bffffffffffffffffffffffffffffffffffffffffffffffffffffffff1916827bffffffffffffffffffffffffffffffffffffffffffffffffffffffff1916145b806106cc57506106cb826117cc565b5b9050919050565b6060600280546106e2906135c4565b80601f016020809104026020016040519081016040528092919081815260200182805461070e906135c4565b801561075b5780601f106107305761010080835404028352916020019161075b565b820191906000526020600020905b81548152906001019060200180831161073e57829003601f168201915b5050505050905090565b600061077082611836565b6107af576040517f08c379a00000000000000000000000000000000000000000000000000000000081526004016107a6906132b4565b60405180910390fd5b600e600083815260200190815260200160002060009054906101000a900473ffffffffffffffffffffffffffffffffffffffff169050919050565b60006107f582610eef565b90508073ffffffffffffffffffffffffffffffffffffffff168373ffffffffffffffffffffffffffffffffffffffff161415610866576040517f08c379a000000000000000000000000000000000000000000000000000000000815260040161085d90613254565b60405180910390fd5b8073ffffffffffffffffffffffffffffffffffffffff16610885611844565b73ffffffffffffffffffffffffffffffffffffffff16141580156108b757506108b5816108b0611844565b611640565b155b156108f7576040517f08c379a00000000000000000000000000000000000000000000000000000000081526004016108ee906132d4565b60405180910390fd5b61090283838361184c565b505050565b6000600154905090565b61091c8383836118fe565b505050565b600061092c83610f05565b821061096d576040517f08c379a0000000000000000000000000000000000000000000000000000000008152600401610964906132d4565b60405180910390fd5b6000610977610907565b905060008060005b83811015610ad1576000600c60008381526020019081526020016000206040518060400160405290816000820160009054906101000a900473ffffffffffffffffffffffffffffffffffffffff1673ffffffffffffffffffffffffffffffffffffffff1673ffffffffffffffffffffffffffffffffffffffff1681526020016000820160149054906101000a900467ffffffffffffffff1667ffffffffffffffff1667ffffffffffffffff16815250509050600073ffffffffffffffffffffffffffffffffffffffff16816000015173ffffffffffffffffffffffffffffffffffffffff1614610a7157806000015192505b8773ffffffffffffffffffffffffffffffffffffffff168373ffffffffffffffffffffffffffffffffffffffff161415610ac35786841415610aba578195505050505050610b0b565b83806001019450505b50808060010191505061097f565b506000610b07577f4e487b7100000000000000000000000000000000000000000000000000000000600052600160045260246000fd5b5050505b92915050565b610b19611844565b73ffffffffffffffffffffffffffffffffffffffff16610b37611076565b73ffffffffffffffffffffffffffffffffffffffff1614610b8d576040517f08c379a0000000000000000000000000000000000000000000000000000000008152600401610b84906131f4565b60405180910390fd5b62093a80600654610b9e91906133f9565b4211610bdf576040517f08c379a0000000000000000000000000000000000000000000000000000000008152600401610bd690613174565b60405180910390fd5b600554610bea610907565b1015610c2b576040517f08c379a0000000000000000000000000000000000000000000000000000000008152600401610c22906131b4565b60405180910390fd5b565b806000600b60003373ffffffffffffffffffffffffffffffffffffffff1673ffffffffffffffffffffffffffffffffffffffff16815260200190815260200160002054601054610c7d91906134da565b10158015610cd75750600b60003373ffffffffffffffffffffffffffffffffffffffff1673ffffffffffffffffffffffffffffffffffffffff16815260200190815260200160002054601054610cd391906134da565b8111155b610d16576040517f08c379a0000000000000000000000000000000000000000000000000000000008152600401610d0d90613194565b60405180910390fd5b600754341015610d5b576040517f08c379a0000000000000000000000000000000000000000000000000000000008152600401610d52906131d4565b60405180910390fd5b610d778383604051806020016040528060008152506001611e3e565b600354610d82610907565b1015610de1576001601160003373ffffffffffffffffffffffffffffffffffffffff1673ffffffffffffffffffffffffffffffffffffffff16815260200190815260200160002060006101000a81548160ff0219169083151502179055505b505050565b610e018383836040518060200160405280600081525061153c565b505050565b6000610e10610907565b8210610e51576040517f08c379a0000000000000000000000000000000000000000000000000000000008152600401610e48906132d4565b60405180910390fd5b819050919050565b610e61611844565b73ffffffffffffffffffffffffffffffffffffffff16610e7f611076565b73ffffffffffffffffffffffffffffffffffffffff1614610ed5576040517f08c379a0000000000000000000000000000000000000000000000000000000008152600401610ecc906131f4565b60405180910390fd5b8060099080519060200190610eeb9291906128e8565b5050565b6000610efa826122c9565b600001519050919050565b60008073ffffffffffffffffffffffffffffffffffffffff168273ffffffffffffffffffffffffffffffffffffffff161415610f76576040517f08c379a0000000000000000000000000000000000000000000000000000000008152600401610f6d906132f4565b60405180910390fd5b600d60008373ffffffffffffffffffffffffffffffffffffffff1673ffffffffffffffffffffffffffffffffffffffff16815260200190815260200160002060000160009054906101000a90046fffffffffffffffffffffffffffffffff166fffffffffffffffffffffffffffffffff169050919050565b610ff6611844565b73ffffffffffffffffffffffffffffffffffffffff16611014611076565b73ffffffffffffffffffffffffffffffffffffffff161461106a576040517f08c379a0000000000000000000000000000000000000000000000000000000008152600401611061906131f4565b60405180910390fd5b611074600061241f565b565b60008060009054906101000a900473ffffffffffffffffffffffffffffffffffffffff16905090565b6060600a80546110ae906135c4565b80601f01602080910402602001604051908101604052809291908181526020018280546110da906135c4565b80156111275780601f106110fc57610100808354040283529160200191611127565b820191906000526020600020905b81548152906001019060200180831161110a57829003601f168201915b5050505050905090565b611139611844565b73ffffffffffffffffffffffffffffffffffffffff168273ffffffffffffffffffffffffffffffffffffffff1614156111a7576040517f08c379a000000000000000000000000000000000000000000000000000000000815260040161119e90613254565b60405180910390fd5b80600f60006111b4611844565b73ffffffffffffffffffffffffffffffffffffffff1673ffffffffffffffffffffffffffffffffffffffff16815260200190815260200160002060008473ffffffffffffffffffffffffffffffffffffffff1673ffffffffffffffffffffffffffffffffffffffff16815260200190815260200160002060006101000a81548160ff0219169083151502179055508173ffffffffffffffffffffffffffffffffffffffff16611261611844565b73ffffffffffffffffffffffffffffffffffffffff167f17307eab39ab6107e8899845ad3d59bd9653f200f220920489ca2b5937696c31836040516112a691906130f7565b60405180910390a35050565b600034116112f5576040517f08c379a00000000000000000000000000000000000000000000000000000000081526004016112ec90613234565b60405180910390fd5b346008600082825461130791906133f9565b92505081905550565b6006544211611354576040517f08c379a000000000000000000000000000000000000000000000000000000000815260040161134b90613274565b60405180910390fd5b60055461135f610907565b1061139f576040517f08c379a000000000000000000000000000000000000000000000000000000000815260040161139690613294565b60405180910390fd5b60006113aa33610f05565b116113ea576040517f08c379a00000000000000000000000000000000000000000000000000000000081526004016113e190613154565b60405180910390fd5b6113fd33306113f833610f05565b6118fe565b3373ffffffffffffffffffffffffffffffffffffffff166108fc61142033610f05565b60075461142d9190613480565b9081150290604051600060405180830381858888f19350505050158015611458573d6000803e3d6000fd5b5060011515601160003373ffffffffffffffffffffffffffffffffffffffff1673ffffffffffffffffffffffffffffffffffffffff16815260200190815260200160002060009054906101000a900460ff1615151480156114c1575060006114bf33610f05565b115b1561153a5760006114d0610907565b60646114dc91906134da565b90506000816008546114ee919061344f565b90503373ffffffffffffffffffffffffffffffffffffffff166108fc829081150290604051600060405180830381858888f19350505050158015611536573d6000803e3d6000fd5b5050505b565b6115478484846118fe565b611553848484846124e3565b611592576040517f08c379a0000000000000000000000000000000000000000000000000000000008152600401611589906132d4565b60405180910390fd5b50505050565b60606115a382611836565b6115e2576040517f08c379a00000000000000000000000000000000000000000000000000000000081526004016115d990613214565b60405180910390fd5b60006115ec61267a565b905060008151141561160d5760405180602001604052806000815250611638565b806116178461270c565b604051602001611628929190613061565b6040516020818303038152906040525b915050919050565b6000600f60008473ffffffffffffffffffffffffffffffffffffffff1673ffffffffffffffffffffffffffffffffffffffff16815260200190815260200160002060008373ffffffffffffffffffffffffffffffffffffffff1673ffffffffffffffffffffffffffffffffffffffff16815260200190815260200160002060009054906101000a900460ff16905092915050565b6116dc611844565b73ffffffffffffffffffffffffffffffffffffffff166116fa611076565b73ffffffffffffffffffffffffffffffffffffffff1614611750576040517f08c379a0000000000000000000000000000000000000000000000000000000008152600401611747906131f4565b60405180910390fd5b600073ffffffffffffffffffffffffffffffffffffffff168173ffffffffffffffffffffffffffffffffffffffff1614156117c0576040517f08c379a00000000000000000000000000000000000000000000000000000000081526004016117b790613134565b60405180910390fd5b6117c98161241f565b50565b60007f01ffc9a7000000000000000000000000000000000000000000000000000000007bffffffffffffffffffffffffffffffffffffffffffffffffffffffff1916827bffffffffffffffffffffffffffffffffffffffffffffffffffffffff1916149050919050565b600060015482109050919050565b600033905090565b82600e600084815260200190815260200160002060006101000a81548173ffffffffffffffffffffffffffffffffffffffff021916908373ffffffffffffffffffffffffffffffffffffffff160217905550818373ffffffffffffffffffffffffffffffffffffffff168273ffffffffffffffffffffffffffffffffffffffff167f8c5be1e5ebec7d5bd14f71427d1e84f3dd0314c0f7b2291e5b200ac8c7c3b92560405160405180910390a4505050565b6000611909826122c9565b90506000816000015173ffffffffffffffffffffffffffffffffffffffff16611930611844565b73ffffffffffffffffffffffffffffffffffffffff16148061198c5750611955611844565b73ffffffffffffffffffffffffffffffffffffffff1661197484610765565b73ffffffffffffffffffffffffffffffffffffffff16145b806119a857506119a782600001516119a2611844565b611640565b5b9050806119ea576040517f08c379a00000000000000000000000000000000000000000000000000000000081526004016119e1906132d4565b60405180910390fd5b8473ffffffffffffffffffffffffffffffffffffffff16826000015173ffffffffffffffffffffffffffffffffffffffff1614611a5c576040517f08c379a0000000000000000000000000000000000000000000000000000000008152600401611a53906132d4565b60405180910390fd5b600073ffffffffffffffffffffffffffffffffffffffff168473ffffffffffffffffffffffffffffffffffffffff161415611acc576040517f08c379a0000000000000000000000000000000000000000000000000000000008152600401611ac3906132d4565b60405180910390fd5b611ad985858560016128b9565b611ae9600084846000015161184c565b6001600d60008773ffffffffffffffffffffffffffffffffffffffff1673ffffffffffffffffffffffffffffffffffffffff16815260200190815260200160002060000160008282829054906101000a90046fffffffffffffffffffffffffffffffff160392506101000a8154816fffffffffffffffffffffffffffffffff02191690836fffffffffffffffffffffffffffffffff1602179055506001600d60008673ffffffffffffffffffffffffffffffffffffffff1673ffffffffffffffffffffffffffffffffffffffff16815260200190815260200160002060000160008282829054906101000a90046fffffffffffffffffffffffffffffffff160192506101000a8154816fffffffffffffffffffffffffffffffff02191690836fffffffffffffffffffffffffffffffff16021790555083600c600085815260200190815260200160002060000160006101000a81548173ffffffffffffffffffffffffffffffffffffffff021916908373ffffffffffffffffffffffffffffffffffffffff16021790555042600c600085815260200190815260200160002060000160146101000a81548167ffffffffffffffff021916908367ffffffffffffffff1602179055506000600184019050600073ffffffffffffffffffffffffffffffffffffffff16600c600083815260200190815260200160002060000160009054906101000a900473ffffffffffffffffffffffffffffffffffffffff1673ffffffffffffffffffffffffffffffffffffffff161415611dce57611d2d81611836565b15611dcd578260000151600c600083815260200190815260200160002060000160006101000a81548173ffffffffffffffffffffffffffffffffffffffff021916908373ffffffffffffffffffffffffffffffffffffffff1602179055508260200151600c600083815260200190815260200160002060000160146101000a81548167ffffffffffffffff021916908367ffffffffffffffff1602179055505b5b50828473ffffffffffffffffffffffffffffffffffffffff168673ffffffffffffffffffffffffffffffffffffffff167fddf252ad1be2c89b69c2b068fc378daa952ba7f163c4a11628f55a4df523b3ef60405160405180910390a4611e3785858560016128bf565b5050505050565b826000600b60003373ffffffffffffffffffffffffffffffffffffffff1673ffffffffffffffffffffffffffffffffffffffff16815260200190815260200160002054601054611e8e91906134da565b10158015611ee85750600b60003373ffffffffffffffffffffffffffffffffffffffff1673ffffffffffffffffffffffffffffffffffffffff16815260200190815260200160002054601054611ee491906134da565b8111155b611f27576040517f08c379a0000000000000000000000000000000000000000000000000000000008152600401611f1e90613194565b60405180910390fd5b60006001549050600073ffffffffffffffffffffffffffffffffffffffff168673ffffffffffffffffffffffffffffffffffffffff161415611f9e576040517f08c379a0000000000000000000000000000000000000000000000000000000008152600401611f95906132d4565b60405180910390fd5b6000851415611fe2576040517f08c379a0000000000000000000000000000000000000000000000000000000008152600401611fd9906132d4565b60405180910390fd5b600454421015611ff157600080fd5b60065442111561200057600080fd5b61200d60008783886128b9565b84600d60008873ffffffffffffffffffffffffffffffffffffffff1673ffffffffffffffffffffffffffffffffffffffff16815260200190815260200160002060000160008282829054906101000a90046fffffffffffffffffffffffffffffffff160192506101000a8154816fffffffffffffffffffffffffffffffff02191690836fffffffffffffffffffffffffffffffff16021790555084600d60008873ffffffffffffffffffffffffffffffffffffffff1673ffffffffffffffffffffffffffffffffffffffff16815260200190815260200160002060000160108282829054906101000a90046fffffffffffffffffffffffffffffffff160192506101000a8154816fffffffffffffffffffffffffffffffff02191690836fffffffffffffffffffffffffffffffff16021790555085600c600083815260200190815260200160002060000160006101000a81548173ffffffffffffffffffffffffffffffffffffffff021916908373ffffffffffffffffffffffffffffffffffffffff16021790555042600c600083815260200190815260200160002060000160146101000a81548167ffffffffffffffff021916908367ffffffffffffffff160217905550600081905060005b868110156122ab57818873ffffffffffffffffffffffffffffffffffffffff16600073ffffffffffffffffffffffffffffffffffffffff167fddf252ad1be2c89b69c2b068fc378daa952ba7f163c4a11628f55a4df523b3ef60405160405180910390a4848015612256575061225460008984896124e3565b155b15612296576040517f08c379a000000000000000000000000000000000000000000000000000000000815260040161228d906132d4565b60405180910390fd5b818060010192505080806001019150506121db565b5080600181905550506122c160008783886128bf565b505050505050565b6122d161296e565b6122da82611836565b612319576040517f08c379a000000000000000000000000000000000000000000000000000000000815260040161231090613214565b60405180910390fd5b60008290505b6000600c60008381526020019081526020016000206040518060400160405290816000820160009054906101000a900473ffffffffffffffffffffffffffffffffffffffff1673ffffffffffffffffffffffffffffffffffffffff1673ffffffffffffffffffffffffffffffffffffffff1681526020016000820160149054906101000a900467ffffffffffffffff1667ffffffffffffffff1667ffffffffffffffff16815250509050600073ffffffffffffffffffffffffffffffffffffffff16816000015173ffffffffffffffffffffffffffffffffffffffff161461240b57809250505061241a565b5080806001900391505061231f565b919050565b60008060009054906101000a900473ffffffffffffffffffffffffffffffffffffffff169050816000806101000a81548173ffffffffffffffffffffffffffffffffffffffff021916908373ffffffffffffffffffffffffffffffffffffffff1602179055508173ffffffffffffffffffffffffffffffffffffffff168173ffffffffffffffffffffffffffffffffffffffff167f8be0079c531659141344cd1fd0a4f28419497f9722a3daafe3b4186f6b6457e060405160405180910390a35050565b60006125048473ffffffffffffffffffffffffffffffffffffffff166128c5565b1561266d578373ffffffffffffffffffffffffffffffffffffffff1663150b7a0261252d611844565b8786866040518563ffffffff1660e01b815260040161254f94939291906130ab565b602060405180830381600087803b15801561256957600080fd5b505af192505050801561259a57506040513d601f19601f820116820180604052508101906125979190612cce565b60015b61261d573d80600081146125ca576040519150601f19603f3d011682016040523d82523d6000602084013e6125cf565b606091505b50600081511415612615576040517f08c379a000000000000000000000000000000000000000000000000000000000815260040161260c906132d4565b60405180910390fd5b805181602001fd5b63150b7a0260e01b7bffffffffffffffffffffffffffffffffffffffffffffffffffffffff1916817bffffffffffffffffffffffffffffffffffffffffffffffffffffffff191614915050612672565b600190505b949350505050565b606060098054612689906135c4565b80601f01602080910402602001604051908101604052809291908181526020018280546126b5906135c4565b80156127025780601f106126d757610100808354040283529160200191612702565b820191906000526020600020905b8154815290600101906020018083116126e557829003601f168201915b5050505050905090565b60606000821415612754576040518060400160405280600181526020017f300000000000000000000000000000000000000000000000000000000000000081525090506128b4565b600082905060005b6000821461278657808061276f90613627565b915050600a8261277f919061344f565b915061275c565b60008167ffffffffffffffff8111156127c8577f4e487b7100000000000000000000000000000000000000000000000000000000600052604160045260246000fd5b6040519080825280601f01601f1916602001820160405280156127fa5781602001600182028036833780820191505090505b5090505b600085146128ad5760018261281391906134da565b9150600a856128229190613670565b603061282e91906133f9565b60f81b81838151811061286a577f4e487b7100000000000000000000000000000000000000000000000000000000600052603260045260246000fd5b60200101907effffffffffffffffffffffffffffffffffffffffffffffffffffffffffffff1916908160001a905350600a856128a6919061344f565b94506127fe565b8093505050505b919050565b50505050565b50505050565b6000808273ffffffffffffffffffffffffffffffffffffffff163b119050919050565b8280546128f4906135c4565b90600052602060002090601f016020900481019282612916576000855561295d565b82601f1061292f57805160ff191683800117855561295d565b8280016001018555821561295d579182015b8281111561295c578251825591602001919060010190612941565b5b50905061296a91906129a8565b5090565b6040518060400160405280600073ffffffffffffffffffffffffffffffffffffffff168152602001600067ffffffffffffffff1681525090565b5b808211156129c15760008160009055506001016129a9565b5090565b60006129d86129d384613354565b61332f565b9050828152602081018484840111156129f057600080fd5b6129fb848285613582565b509392505050565b6000612a16612a1184613385565b61332f565b905082815260208101848484011115612a2e57600080fd5b612a39848285613582565b509392505050565b600081359050612a5081613a96565b92915050565b600081359050612a6581613aad565b92915050565b600081359050612a7a81613ac4565b92915050565b600081519050612a8f81613ac4565b92915050565b600082601f830112612aa657600080fd5b8135612ab68482602086016129c5565b91505092915050565b600082601f830112612ad057600080fd5b8135612ae0848260208601612a03565b91505092915050565b600081359050612af881613adb565b92915050565b600060208284031215612b1057600080fd5b6000612b1e84828501612a41565b91505092915050565b60008060408385031215612b3a57600080fd5b6000612b4885828601612a41565b9250506020612b5985828601612a41565b9150509250929050565b600080600060608486031215612b7857600080fd5b6000612b8686828701612a41565b9350506020612b9786828701612a41565b9250506040612ba886828701612ae9565b9150509250925092565b60008060008060808587031215612bc857600080fd5b6000612bd687828801612a41565b9450506020612be787828801612a41565b9350506040612bf887828801612ae9565b925050606085013567ffffffffffffffff811115612c1557600080fd5b612c2187828801612a95565b91505092959194509250565b60008060408385031215612c4057600080fd5b6000612c4e85828601612a41565b9250506020612c5f85828601612a56565b9150509250929050565b60008060408385031215612c7c57600080fd5b6000612c8a85828601612a41565b9250506020612c9b85828601612ae9565b9150509250929050565b600060208284031215612cb757600080fd5b6000612cc584828501612a6b565b91505092915050565b600060208284031215612ce057600080fd5b6000612cee84828501612a80565b91505092915050565b600060208284031215612d0957600080fd5b600082013567ffffffffffffffff811115612d2357600080fd5b612d2f84828501612abf565b91505092915050565b600060208284031215612d4a57600080fd5b6000612d5884828501612ae9565b91505092915050565b612d6a8161350e565b82525050565b612d7981613520565b82525050565b6000612d8a826133b6565b612d9481856133cc565b9350612da4818560208601613591565b612dad8161375d565b840191505092915050565b6000612dc3826133c1565b612dcd81856133dd565b9350612ddd818560208601613591565b612de68161375d565b840191505092915050565b6000612dfc826133c1565b612e0681856133ee565b9350612e16818560208601613591565b80840191505092915050565b6000612e2f6026836133dd565b9150612e3a8261376e565b604082019050919050565b6000612e526026836133dd565b9150612e5d826137bd565b604082019050919050565b6000612e756038836133dd565b9150612e808261380c565b604082019050919050565b6000612e986022836133dd565b9150612ea38261385b565b604082019050919050565b6000612ebb601b836133dd565b9150612ec6826138aa565b602082019050919050565b6000612ede601d836133dd565b9150612ee9826138d3565b602082019050919050565b6000612f016005836133ee565b9150612f0c826138fc565b600582019050919050565b6000612f246020836133dd565b9150612f2f82613925565b602082019050919050565b6000612f476014836133dd565b9150612f528261394e565b602082019050919050565b6000612f6a601e836133dd565b9150612f7582613977565b602082019050919050565b6000612f8d6015836133dd565b9150612f98826139a0565b602082019050919050565b6000612fb06012836133dd565b9150612fbb826139c9565b602082019050919050565b6000612fd36017836133dd565b9150612fde826139f2565b602082019050919050565b6000612ff66014836133dd565b915061300182613a1b565b602082019050919050565b60006130196015836133dd565b915061302482613a44565b602082019050919050565b600061303c6018836133dd565b915061304782613a6d565b602082019050919050565b61305b81613578565b82525050565b600061306d8285612df1565b91506130798284612df1565b915061308482612ef4565b91508190509392505050565b60006020820190506130a56000830184612d61565b92915050565b60006080820190506130c06000830187612d61565b6130cd6020830186612d61565b6130da6040830185613052565b81810360608301526130ec8184612d7f565b905095945050505050565b600060208201905061310c6000830184612d70565b92915050565b6000602082019050818103600083015261312c8184612db8565b905092915050565b6000602082019050818103600083015261314d81612e22565b9050919050565b6000602082019050818103600083015261316d81612e45565b9050919050565b6000602082019050818103600083015261318d81612e68565b9050919050565b600060208201905081810360008301526131ad81612e8b565b9050919050565b600060208201905081810360008301526131cd81612eae565b9050919050565b600060208201905081810360008301526131ed81612ed1565b9050919050565b6000602082019050818103600083015261320d81612f17565b9050919050565b6000602082019050818103600083015261322d81612f3a565b9050919050565b6000602082019050818103600083015261324d81612f5d565b9050919050565b6000602082019050818103600083015261326d81612f80565b9050919050565b6000602082019050818103600083015261328d81612fa3565b9050919050565b600060208201905081810360008301526132ad81612fc6565b9050919050565b600060208201905081810360008301526132cd81612fe9565b9050919050565b600060208201905081810360008301526132ed8161300c565b9050919050565b6000602082019050818103600083015261330d8161302f565b9050919050565b60006020820190506133296000830184613052565b92915050565b600061333961334a565b905061334582826135f6565b919050565b6000604051905090565b600067ffffffffffffffff82111561336f5761336e61372e565b5b6133788261375d565b9050602081019050919050565b600067ffffffffffffffff8211156133a05761339f61372e565b5b6133a98261375d565b9050602081019050919050565b600081519050919050565b600081519050919050565b600082825260208201905092915050565b600082825260208201905092915050565b600081905092915050565b600061340482613578565b915061340f83613578565b9250827fffffffffffffffffffffffffffffffffffffffffffffffffffffffffffffffff03821115613444576134436136a1565b5b828201905092915050565b600061345a82613578565b915061346583613578565b925082613475576134746136d0565b5b828204905092915050565b600061348b82613578565b915061349683613578565b9250817fffffffffffffffffffffffffffffffffffffffffffffffffffffffffffffffff04831182151516156134cf576134ce6136a1565b5b828202905092915050565b60006134e582613578565b91506134f083613578565b925082821015613503576135026136a1565b5b828203905092915050565b600061351982613558565b9050919050565b60008115159050919050565b60007fffffffff0000000000000000000000000000000000000000000000000000000082169050919050565b600073ffffffffffffffffffffffffffffffffffffffff82169050919050565b6000819050919050565b82818337600083830152505050565b60005b838110156135af578082015181840152602081019050613594565b838111156135be576000848401525b50505050565b600060028204905060018216806135dc57607f821691505b602082108114156135f0576135ef6136ff565b5b50919050565b6135ff8261375d565b810181811067ffffffffffffffff8211171561361e5761361d61372e565b5b80604052505050565b600061363282613578565b91507fffffffffffffffffffffffffffffffffffffffffffffffffffffffffffffffff821415613665576136646136a1565b5b600182019050919050565b600061367b82613578565b915061368683613578565b925082613696576136956136d0565b5b828206905092915050565b7f4e487b7100000000000000000000000000000000000000000000000000000000600052601160045260246000fd5b7f4e487b7100000000000000000000000000000000000000000000000000000000600052601260045260246000fd5b7f4e487b7100000000000000000000000000000000000000000000000000000000600052602260045260246000fd5b7f4e487b7100000000000000000000000000000000000000000000000000000000600052604160045260246000fd5b6000601f19601f8301169050919050565b7f4f776e61626c653a206e6577206f776e657220697320746865207a65726f206160008201527f6464726573730000000000000000000000000000000000000000000000000000602082015250565b7f6e6f7420656c696769626c6520617320796f7520646f6e27742068617665207460008201527f6865206e66740000000000000000000000000000000000000000000000000000602082015250565b7f796f752063616e206f6e6c79207769746864726177206166746572206120776560008201527f656b2061667465722074686520656e64206f66206d696e740000000000000000602082015250565b7f4d6178206d696e747320706572207472616e73616374696f6e2065786365656460008201527f6564000000000000000000000000000000000000000000000000000000000000602082015250565b7f6e6f7420656c696769626c6520666f72207769746864726177616c0000000000600082015250565b7f76616c7565206973206c657373207468616e206d696e74207072696365000000600082015250565b7f2e6a736f6e000000000000000000000000000000000000000000000000000000600082015250565b7f4f776e61626c653a2063616c6c6572206973206e6f7420746865206f776e6572600082015250565b7f546f6b656e20446f6573206e6f74206578697374000000000000000000000000600082015250565b7f76616c75652073686f756c642062652067726561746572207468616e20300000600082015250565b7f63616e277420617070726f766520746f2073656c660000000000000000000000600082015250565b7f6d696e74206e6f7420656e646564207965740000000000000000000000000000600082015250565b7f6e6f7420656c696769626c6520666f7220726566756e64000000000000000000600082015250565b7f746f6b656e20646f6573206e6f74206578697374000000000000000000000000600082015250565b7f546f6b656e496e6465784f75744f66426f756e64730000000000000000000000600082015250565b7f6f776e65722063616e2774206265203020616464726573730000000000000000600082015250565b613a9f8161350e565b8114613aaa57600080fd5b50565b613ab681613520565b8114613ac157600080fd5b50565b613acd8161352c565b8114613ad857600080fd5b50565b613ae481613578565b8114613aef57600080fd5b5056fea26469706673582212205fd021339e8ab6d906bdc602168f9fbadb143a5af01b99a1b2c2e9c14199713e64736f6c63430008040033",
  "linkReferences": {},
  "deployedLinkReferences": {}
}