{
  "_format": "hh-sol-artifact-1",
  "contractName": "ERC721R",
  "sourceName": "contracts/ERC721.sol",
  "abi": [
    {
      "inputs": [
        {
          "internalType": "string",
          "name": "name_",
          "type": "string"
        },
        {
          "internalType": "string",
          "name": "symbol_",
          "type": "string"
        },
        {
          "internalType": "uint256",
          "name": "_collectionSize",
          "type": "uint256"
        },
        {
          "internalType": "uint256",
          "name": "_maxMintPerAddress",
          "type": "uint256"
        },
        {
          "internalType": "uint256",
          "name": "_mintStartTime",
          "type": "uint256"
        },
        {
          "internalType": "uint256",
          "name": "_mintEndTime",
          "type": "uint256"
        },
        {
          "internalType": "uint256",
          "name": "_mintPrice",
          "type": "uint256"
        },
        {
          "internalType": "string",
          "name": "baseURI_",
          "type": "string"
        }
      ],
      "stateMutability": "nonpayable",
      "type": "constructor"
    },
    {
      "anonymous": false,
      "inputs": [
        {
          "indexed": true,
          "internalType": "address",
          "name": "owner",
          "type": "address"
        },
        {
          "indexed": true,
          "internalType": "address",
          "name": "approved",
          "type": "address"
        },
        {
          "indexed": true,
          "internalType": "uint256",
          "name": "tokenId",
          "type": "uint256"
        }
      ],
      "name": "Approval",
      "type": "event"
    },
    {
      "anonymous": false,
      "inputs": [
        {
          "indexed": true,
          "internalType": "address",
          "name": "owner",
          "type": "address"
        },
        {
          "indexed": true,
          "internalType": "address",
          "name": "operator",
          "type": "address"
        },
        {
          "indexed": false,
          "internalType": "bool",
          "name": "approved",
          "type": "bool"
        }
      ],
      "name": "ApprovalForAll",
      "type": "event"
    },
    {
      "anonymous": false,
      "inputs": [
        {
          "indexed": true,
          "internalType": "address",
          "name": "previousOwner",
          "type": "address"
        },
        {
          "indexed": true,
          "internalType": "address",
          "name": "newOwner",
          "type": "address"
        }
      ],
      "name": "OwnershipTransferred",
      "type": "event"
    },
    {
      "anonymous": false,
      "inputs": [
        {
          "indexed": true,
          "internalType": "address",
          "name": "from",
          "type": "address"
        },
        {
          "indexed": true,
          "internalType": "address",
          "name": "to",
          "type": "address"
        },
        {
          "indexed": true,
          "internalType": "uint256",
          "name": "tokenId",
          "type": "uint256"
        }
      ],
      "name": "Transfer",
      "type": "event"
    },
    {
      "stateMutability": "payable",
      "type": "fallback"
    },
    {
      "inputs": [],
      "name": "addMoneyToPool",
      "outputs": [],
      "stateMutability": "payable",
      "type": "function"
    },
    {
      "inputs": [
        {
          "internalType": "address",
          "name": "to",
          "type": "address"
        },
        {
          "internalType": "uint256",
          "name": "tokenId",
          "type": "uint256"
        }
      ],
      "name": "approve",
      "outputs": [],
      "stateMutability": "nonpayable",
      "type": "function"
    },
    {
      "inputs": [
        {
          "internalType": "address",
          "name": "owner",
          "type": "address"
        }
      ],
      "name": "balanceOf",
      "outputs": [
        {
          "internalType": "uint256",
          "name": "",
          "type": "uint256"
        }
      ],
      "stateMutability": "view",
      "type": "function"
    },
    {
      "inputs": [],
      "name": "claimRefund",
      "outputs": [],
      "stateMutability": "nonpayable",
      "type": "function"
    },
    {
      "inputs": [
        {
          "internalType": "uint256",
          "name": "tokenId",
          "type": "uint256"
        }
      ],
      "name": "getApproved",
      "outputs": [
        {
          "internalType": "address",
          "name": "",
          "type": "address"
        }
      ],
      "stateMutability": "view",
      "type": "function"
    },
    {
      "inputs": [
        {
          "internalType": "address",
          "name": "owner",
          "type": "address"
        },
        {
          "internalType": "address",
          "name": "operator",
          "type": "address"
        }
      ],
      "name": "isApprovedForAll",
      "outputs": [
        {
          "internalType": "bool",
          "name": "",
          "type": "bool"
        }
      ],
      "stateMutability": "view",
      "type": "function"
    },
    {
      "inputs": [
        {
          "internalType": "address",
          "name": "to",
          "type": "address"
        },
        {
          "internalType": "uint256",
          "name": "quantity",
          "type": "uint256"
        }
      ],
      "name": "mint",
      "outputs": [],
      "stateMutability": "payable",
      "type": "function"
    },
    {
      "inputs": [],
      "name": "name",
      "outputs": [
        {
          "internalType": "string",
          "name": "",
          "type": "string"
        }
      ],
      "stateMutability": "view",
      "type": "function"
    },
    {
      "inputs": [],
      "name": "owner",
      "outputs": [
        {
          "internalType": "address",
          "name": "",
          "type": "address"
        }
      ],
      "stateMutability": "view",
      "type": "function"
    },
    {
      "inputs": [
        {
          "internalType": "uint256",
          "name": "tokenId",
          "type": "uint256"
        }
      ],
      "name": "ownerOf",
      "outputs": [
        {
          "internalType": "address",
          "name": "",
          "type": "address"
        }
      ],
      "stateMutability": "view",
      "type": "function"
    },
    {
      "inputs": [],
      "name": "renounceOwnership",
      "outputs": [],
      "stateMutability": "nonpayable",
      "type": "function"
    },
    {
      "inputs": [
        {
          "internalType": "address",
          "name": "from",
          "type": "address"
        },
        {
          "internalType": "address",
          "name": "to",
          "type": "address"
        },
        {
          "internalType": "uint256",
          "name": "tokenId",
          "type": "uint256"
        }
      ],
      "name": "safeTransferFrom",
      "outputs": [],
      "stateMutability": "nonpayable",
      "type": "function"
    },
    {
      "inputs": [
        {
          "internalType": "address",
          "name": "from",
          "type": "address"
        },
        {
          "internalType": "address",
          "name": "to",
          "type": "address"
        },
        {
          "internalType": "uint256",
          "name": "tokenId",
          "type": "uint256"
        },
        {
          "internalType": "bytes",
          "name": "_data",
          "type": "bytes"
        }
      ],
      "name": "safeTransferFrom",
      "outputs": [],
      "stateMutability": "nonpayable",
      "type": "function"
    },
    {
      "inputs": [
        {
          "internalType": "address",
          "name": "operator",
          "type": "address"
        },
        {
          "internalType": "bool",
          "name": "approved",
          "type": "bool"
        }
      ],
      "name": "setApprovalForAll",
      "outputs": [],
      "stateMutability": "nonpayable",
      "type": "function"
    },
    {
      "inputs": [
        {
          "internalType": "string",
          "name": "_baseUri",
          "type": "string"
        }
      ],
      "name": "setBaseURI",
      "outputs": [],
      "stateMutability": "nonpayable",
      "type": "function"
    },
    {
      "inputs": [
        {
          "internalType": "bytes4",
          "name": "interfaceId",
          "type": "bytes4"
        }
      ],
      "name": "supportsInterface",
      "outputs": [
        {
          "internalType": "bool",
          "name": "",
          "type": "bool"
        }
      ],
      "stateMutability": "view",
      "type": "function"
    },
    {
      "inputs": [],
      "name": "symbol",
      "outputs": [
        {
          "internalType": "string",
          "name": "",
          "type": "string"
        }
      ],
      "stateMutability": "view",
      "type": "function"
    },
    {
      "inputs": [
        {
          "internalType": "uint256",
          "name": "index",
          "type": "uint256"
        }
      ],
      "name": "tokenByIndex",
      "outputs": [
        {
          "internalType": "uint256",
          "name": "",
          "type": "uint256"
        }
      ],
      "stateMutability": "view",
      "type": "function"
    },
    {
      "inputs": [
        {
          "internalType": "address",
          "name": "owner",
          "type": "address"
        },
        {
          "internalType": "uint256",
          "name": "index",
          "type": "uint256"
        }
      ],
      "name": "tokenOfOwnerByIndex",
      "outputs": [
        {
          "internalType": "uint256",
          "name": "",
          "type": "uint256"
        }
      ],
      "stateMutability": "view",
      "type": "function"
    },
    {
      "inputs": [
        {
          "internalType": "uint256",
          "name": "tokenId",
          "type": "uint256"
        }
      ],
      "name": "tokenURI",
      "outputs": [
        {
          "internalType": "string",
          "name": "",
          "type": "string"
        }
      ],
      "stateMutability": "view",
      "type": "function"
    },
    {
      "inputs": [],
      "name": "totalSupply",
      "outputs": [
        {
          "internalType": "uint256",
          "name": "",
          "type": "uint256"
        }
      ],
      "stateMutability": "view",
      "type": "function"
    },
    {
      "inputs": [
        {
          "internalType": "address",
          "name": "from",
          "type": "address"
        },
        {
          "internalType": "address",
          "name": "to",
          "type": "address"
        },
        {
          "internalType": "uint256",
          "name": "tokenId",
          "type": "uint256"
        }
      ],
      "name": "transferFrom",
      "outputs": [],
      "stateMutability": "nonpayable",
      "type": "function"
    },
    {
      "inputs": [
        {
          "internalType": "address",
          "name": "newOwner",
          "type": "address"
        }
      ],
      "name": "transferOwnership",
      "outputs": [],
      "stateMutability": "nonpayable",
      "type": "function"
    },
    {
      "inputs": [],
      "name": "withdraw",
      "outputs": [],
      "stateMutability": "view",
      "type": "function"
    }
  ],
  "bytecode": "0x608060405260646003553480156200001657600080fd5b50604051620040c3380380620040c383398181016040528101906200003c9190620002ea565b6200005c62000050620000e560201b60201c565b620000ed60201b60201c565b8383116200006957600080fd5b876002908051906020019062000081929190620001b1565b5086600a90805190602001906200009a929190620001b1565b5083600481905550856005819055508260068190555081600781905550846010819055508060099080519060200190620000d6929190620001b1565b5050505050505050506200058c565b600033905090565b60008060009054906101000a900473ffffffffffffffffffffffffffffffffffffffff169050816000806101000a81548173ffffffffffffffffffffffffffffffffffffffff021916908373ffffffffffffffffffffffffffffffffffffffff1602179055508173ffffffffffffffffffffffffffffffffffffffff168173ffffffffffffffffffffffffffffffffffffffff167f8be0079c531659141344cd1fd0a4f28419497f9722a3daafe3b4186f6b6457e060405160405180910390a35050565b828054620001bf9062000497565b90600052602060002090601f016020900481019282620001e357600085556200022f565b82601f10620001fe57805160ff19168380011785556200022f565b828001600101855582156200022f579182015b828111156200022e57825182559160200191906001019062000211565b5b5090506200023e919062000242565b5090565b5b808211156200025d57600081600090555060010162000243565b5090565b600062000278620002728462000421565b620003f8565b9050828152602081018484840111156200029157600080fd5b6200029e84828562000461565b509392505050565b600082601f830112620002b857600080fd5b8151620002ca84826020860162000261565b91505092915050565b600081519050620002e48162000572565b92915050565b600080600080600080600080610100898b0312156200030857600080fd5b600089015167ffffffffffffffff8111156200032357600080fd5b620003318b828c01620002a6565b985050602089015167ffffffffffffffff8111156200034f57600080fd5b6200035d8b828c01620002a6565b9750506040620003708b828c01620002d3565b9650506060620003838b828c01620002d3565b9550506080620003968b828c01620002d3565b94505060a0620003a98b828c01620002d3565b93505060c0620003bc8b828c01620002d3565b92505060e089015167ffffffffffffffff811115620003da57600080fd5b620003e88b828c01620002a6565b9150509295985092959890939650565b60006200040462000417565b9050620004128282620004cd565b919050565b6000604051905090565b600067ffffffffffffffff8211156200043f576200043e62000532565b5b6200044a8262000561565b9050602081019050919050565b6000819050919050565b60005b838110156200048157808201518184015260208101905062000464565b8381111562000491576000848401525b50505050565b60006002820490506001821680620004b057607f821691505b60208210811415620004c757620004c662000503565b5b50919050565b620004d88262000561565b810181811067ffffffffffffffff82111715620004fa57620004f962000532565b5b80604052505050565b7f4e487b7100000000000000000000000000000000000000000000000000000000600052602260045260246000fd5b7f4e487b7100000000000000000000000000000000000000000000000000000000600052604160045260246000fd5b6000601f19601f8301169050919050565b6200057d8162000457565b81146200058957600080fd5b50565b613b27806200059c6000396000f3fe60806040526004361061014f5760003560e01c80636352211e116100b6578063b0b67c0c1161006f578063b0b67c0c1461049c578063b5545a3c146104a6578063b88d4fde146104bd578063c87b56dd146104e6578063e985e9c514610523578063f2fde38b1461056057610150565b80636352211e1461038c57806370a08231146103c9578063715018a6146104065780638da5cb5b1461041d57806395d89b4114610448578063a22cb4651461047357610150565b80632f745c59116101085780632f745c591461028d5780633ccfd60b146102ca57806340c10f19146102e157806342842e0e146102fd5780634f6ccce71461032657806355f804b31461036357610150565b806301ffc9a71461016b57806306fdde03146101a8578063081812fc146101d3578063095ea7b31461021057806318160ddd1461023957806323b872dd1461026457610150565b5b346008600082825461016291906133f8565b92505081905550005b34801561017757600080fd5b50610192600480360381019061018d9190612ca4565b610589565b60405161019f91906130f6565b60405180910390f35b3480156101b457600080fd5b506101bd6106d3565b6040516101ca9190613111565b60405180910390f35b3480156101df57600080fd5b506101fa60048036038101906101f59190612d37565b610765565b604051610207919061308f565b60405180910390f35b34801561021c57600080fd5b5061023760048036038101906102329190612c68565b6107ea565b005b34801561024557600080fd5b5061024e610907565b60405161025b9190613313565b60405180910390f35b34801561027057600080fd5b5061028b60048036038101906102869190612b62565b610911565b005b34801561029957600080fd5b506102b460048036038101906102af9190612c68565b610921565b6040516102c19190613313565b60405180910390f35b3480156102d657600080fd5b506102df610b11565b005b6102fb60048036038101906102f69190612c68565b610c2d565b005b34801561030957600080fd5b50610324600480360381019061031f9190612b62565b610de5565b005b34801561033257600080fd5b5061034d60048036038101906103489190612d37565b610e05565b60405161035a9190613313565b60405180910390f35b34801561036f57600080fd5b5061038a60048036038101906103859190612cf6565b610e58565b005b34801561039857600080fd5b506103b360048036038101906103ae9190612d37565b610eee565b6040516103c0919061308f565b60405180910390f35b3480156103d557600080fd5b506103f060048036038101906103eb9190612afd565b610f04565b6040516103fd9190613313565b60405180910390f35b34801561041257600080fd5b5061041b610fed565b005b34801561042957600080fd5b50610432611075565b60405161043f919061308f565b60405180910390f35b34801561045457600080fd5b5061045d61109e565b60405161046a9190613111565b60405180910390f35b34801561047f57600080fd5b5061049a60048036038101906104959190612c2c565b611130565b005b6104a46112b1565b005b3480156104b257600080fd5b506104bb61130f565b005b3480156104c957600080fd5b506104e460048036038101906104df9190612bb1565b61153b565b005b3480156104f257600080fd5b5061050d60048036038101906105089190612d37565b611597565b60405161051a9190613111565b60405180910390f35b34801561052f57600080fd5b5061054a60048036038101906105459190612b26565b61163f565b60405161055791906130f6565b60405180910390f35b34801561056c57600080fd5b5061058760048036038101906105829190612afd565b6116d3565b005b60007f80ac58cd000000000000000000000000000000000000000000000000000000007bffffffffffffffffffffffffffffffffffffffffffffffffffffffff1916827bffffffffffffffffffffffffffffffffffffffffffffffffffffffff1916148061065457507f5b5e139f000000000000000000000000000000000000000000000000000000007bffffffffffffffffffffffffffffffffffffffffffffffffffffffff1916827bffffffffffffffffffffffffffffffffffffffffffffffffffffffff1916145b806106bc57507f780e9d63000000000000000000000000000000000000000000000000000000007bffffffffffffffffffffffffffffffffffffffffffffffffffffffff1916827bffffffffffffffffffffffffffffffffffffffffffffffffffffffff1916145b806106cc57506106cb826117cb565b5b9050919050565b6060600280546106e2906135c3565b80601f016020809104026020016040519081016040528092919081815260200182805461070e906135c3565b801561075b5780601f106107305761010080835404028352916020019161075b565b820191906000526020600020905b81548152906001019060200180831161073e57829003601f168201915b5050505050905090565b600061077082611835565b6107af576040517f08c379a00000000000000000000000000000000000000000000000000000000081526004016107a6906132b3565b60405180910390fd5b600e600083815260200190815260200160002060009054906101000a900473ffffffffffffffffffffffffffffffffffffffff169050919050565b60006107f582610eee565b90508073ffffffffffffffffffffffffffffffffffffffff168373ffffffffffffffffffffffffffffffffffffffff161415610866576040517f08c379a000000000000000000000000000000000000000000000000000000000815260040161085d90613253565b60405180910390fd5b8073ffffffffffffffffffffffffffffffffffffffff16610885611843565b73ffffffffffffffffffffffffffffffffffffffff16141580156108b757506108b5816108b0611843565b61163f565b155b156108f7576040517f08c379a00000000000000000000000000000000000000000000000000000000081526004016108ee906132d3565b60405180910390fd5b61090283838361184b565b505050565b6000600154905090565b61091c8383836118fd565b505050565b600061092c83610f04565b821061096d576040517f08c379a0000000000000000000000000000000000000000000000000000000008152600401610964906132d3565b60405180910390fd5b6000610977610907565b905060008060005b83811015610ad1576000600c60008381526020019081526020016000206040518060400160405290816000820160009054906101000a900473ffffffffffffffffffffffffffffffffffffffff1673ffffffffffffffffffffffffffffffffffffffff1673ffffffffffffffffffffffffffffffffffffffff1681526020016000820160149054906101000a900467ffffffffffffffff1667ffffffffffffffff1667ffffffffffffffff16815250509050600073ffffffffffffffffffffffffffffffffffffffff16816000015173ffffffffffffffffffffffffffffffffffffffff1614610a7157806000015192505b8773ffffffffffffffffffffffffffffffffffffffff168373ffffffffffffffffffffffffffffffffffffffff161415610ac35786841415610aba578195505050505050610b0b565b83806001019450505b50808060010191505061097f565b506000610b07577f4e487b7100000000000000000000000000000000000000000000000000000000600052600160045260246000fd5b5050505b92915050565b610b19611843565b73ffffffffffffffffffffffffffffffffffffffff16610b37611075565b73ffffffffffffffffffffffffffffffffffffffff1614610b8d576040517f08c379a0000000000000000000000000000000000000000000000000000000008152600401610b84906131f3565b60405180910390fd5b62093a80600654610b9e91906133f8565b4211610bdf576040517f08c379a0000000000000000000000000000000000000000000000000000000008152600401610bd690613173565b60405180910390fd5b600554610bea610907565b1015610c2b576040517f08c379a0000000000000000000000000000000000000000000000000000000008152600401610c22906131b3565b60405180910390fd5b565b806000600b60003373ffffffffffffffffffffffffffffffffffffffff1673ffffffffffffffffffffffffffffffffffffffff16815260200190815260200160002054601054610c7d91906134d9565b10158015610cd75750600b60003373ffffffffffffffffffffffffffffffffffffffff1673ffffffffffffffffffffffffffffffffffffffff16815260200190815260200160002054601054610cd391906134d9565b8111155b610d16576040517f08c379a0000000000000000000000000000000000000000000000000000000008152600401610d0d90613193565b60405180910390fd5b600754341015610d5b576040517f08c379a0000000000000000000000000000000000000000000000000000000008152600401610d52906131d3565b60405180910390fd5b610d778383604051806020016040528060008152506001611e3d565b6064610d81610907565b1015610de0576001601160003373ffffffffffffffffffffffffffffffffffffffff1673ffffffffffffffffffffffffffffffffffffffff16815260200190815260200160002060006101000a81548160ff0219169083151502179055505b505050565b610e008383836040518060200160405280600081525061153b565b505050565b6000610e0f610907565b8210610e50576040517f08c379a0000000000000000000000000000000000000000000000000000000008152600401610e47906132d3565b60405180910390fd5b819050919050565b610e60611843565b73ffffffffffffffffffffffffffffffffffffffff16610e7e611075565b73ffffffffffffffffffffffffffffffffffffffff1614610ed4576040517f08c379a0000000000000000000000000000000000000000000000000000000008152600401610ecb906131f3565b60405180910390fd5b8060099080519060200190610eea9291906128e7565b5050565b6000610ef9826122c8565b600001519050919050565b60008073ffffffffffffffffffffffffffffffffffffffff168273ffffffffffffffffffffffffffffffffffffffff161415610f75576040517f08c379a0000000000000000000000000000000000000000000000000000000008152600401610f6c906132f3565b60405180910390fd5b600d60008373ffffffffffffffffffffffffffffffffffffffff1673ffffffffffffffffffffffffffffffffffffffff16815260200190815260200160002060000160009054906101000a90046fffffffffffffffffffffffffffffffff166fffffffffffffffffffffffffffffffff169050919050565b610ff5611843565b73ffffffffffffffffffffffffffffffffffffffff16611013611075565b73ffffffffffffffffffffffffffffffffffffffff1614611069576040517f08c379a0000000000000000000000000000000000000000000000000000000008152600401611060906131f3565b60405180910390fd5b611073600061241e565b565b60008060009054906101000a900473ffffffffffffffffffffffffffffffffffffffff16905090565b6060600a80546110ad906135c3565b80601f01602080910402602001604051908101604052809291908181526020018280546110d9906135c3565b80156111265780601f106110fb57610100808354040283529160200191611126565b820191906000526020600020905b81548152906001019060200180831161110957829003601f168201915b5050505050905090565b611138611843565b73ffffffffffffffffffffffffffffffffffffffff168273ffffffffffffffffffffffffffffffffffffffff1614156111a6576040517f08c379a000000000000000000000000000000000000000000000000000000000815260040161119d90613253565b60405180910390fd5b80600f60006111b3611843565b73ffffffffffffffffffffffffffffffffffffffff1673ffffffffffffffffffffffffffffffffffffffff16815260200190815260200160002060008473ffffffffffffffffffffffffffffffffffffffff1673ffffffffffffffffffffffffffffffffffffffff16815260200190815260200160002060006101000a81548160ff0219169083151502179055508173ffffffffffffffffffffffffffffffffffffffff16611260611843565b73ffffffffffffffffffffffffffffffffffffffff167f17307eab39ab6107e8899845ad3d59bd9653f200f220920489ca2b5937696c31836040516112a591906130f6565b60405180910390a35050565b600034116112f4576040517f08c379a00000000000000000000000000000000000000000000000000000000081526004016112eb90613233565b60405180910390fd5b346008600082825461130691906133f8565b92505081905550565b6006544211611353576040517f08c379a000000000000000000000000000000000000000000000000000000000815260040161134a90613273565b60405180910390fd5b60055461135e610907565b1061139e576040517f08c379a000000000000000000000000000000000000000000000000000000000815260040161139590613293565b60405180910390fd5b60006113a933610f04565b116113e9576040517f08c379a00000000000000000000000000000000000000000000000000000000081526004016113e090613153565b60405180910390fd5b6113fc33306113f733610f04565b6118fd565b3373ffffffffffffffffffffffffffffffffffffffff166108fc61141f33610f04565b60075461142c919061347f565b9081150290604051600060405180830381858888f19350505050158015611457573d6000803e3d6000fd5b5060011515601160003373ffffffffffffffffffffffffffffffffffffffff1673ffffffffffffffffffffffffffffffffffffffff16815260200190815260200160002060009054906101000a900460ff1615151480156114c0575060006114be33610f04565b115b156115395760006114cf610907565b60646114db91906134d9565b90506000816008546114ed919061344e565b90503373ffffffffffffffffffffffffffffffffffffffff166108fc829081150290604051600060405180830381858888f19350505050158015611535573d6000803e3d6000fd5b5050505b565b6115468484846118fd565b611552848484846124e2565b611591576040517f08c379a0000000000000000000000000000000000000000000000000000000008152600401611588906132d3565b60405180910390fd5b50505050565b60606115a282611835565b6115e1576040517f08c379a00000000000000000000000000000000000000000000000000000000081526004016115d890613213565b60405180910390fd5b60006115eb612679565b905060008151141561160c5760405180602001604052806000815250611637565b806116168461270b565b604051602001611627929190613060565b6040516020818303038152906040525b915050919050565b6000600f60008473ffffffffffffffffffffffffffffffffffffffff1673ffffffffffffffffffffffffffffffffffffffff16815260200190815260200160002060008373ffffffffffffffffffffffffffffffffffffffff1673ffffffffffffffffffffffffffffffffffffffff16815260200190815260200160002060009054906101000a900460ff16905092915050565b6116db611843565b73ffffffffffffffffffffffffffffffffffffffff166116f9611075565b73ffffffffffffffffffffffffffffffffffffffff161461174f576040517f08c379a0000000000000000000000000000000000000000000000000000000008152600401611746906131f3565b60405180910390fd5b600073ffffffffffffffffffffffffffffffffffffffff168173ffffffffffffffffffffffffffffffffffffffff1614156117bf576040517f08c379a00000000000000000000000000000000000000000000000000000000081526004016117b690613133565b60405180910390fd5b6117c88161241e565b50565b60007f01ffc9a7000000000000000000000000000000000000000000000000000000007bffffffffffffffffffffffffffffffffffffffffffffffffffffffff1916827bffffffffffffffffffffffffffffffffffffffffffffffffffffffff1916149050919050565b600060015482109050919050565b600033905090565b82600e600084815260200190815260200160002060006101000a81548173ffffffffffffffffffffffffffffffffffffffff021916908373ffffffffffffffffffffffffffffffffffffffff160217905550818373ffffffffffffffffffffffffffffffffffffffff168273ffffffffffffffffffffffffffffffffffffffff167f8c5be1e5ebec7d5bd14f71427d1e84f3dd0314c0f7b2291e5b200ac8c7c3b92560405160405180910390a4505050565b6000611908826122c8565b90506000816000015173ffffffffffffffffffffffffffffffffffffffff1661192f611843565b73ffffffffffffffffffffffffffffffffffffffff16148061198b5750611954611843565b73ffffffffffffffffffffffffffffffffffffffff1661197384610765565b73ffffffffffffffffffffffffffffffffffffffff16145b806119a757506119a682600001516119a1611843565b61163f565b5b9050806119e9576040517f08c379a00000000000000000000000000000000000000000000000000000000081526004016119e0906132d3565b60405180910390fd5b8473ffffffffffffffffffffffffffffffffffffffff16826000015173ffffffffffffffffffffffffffffffffffffffff1614611a5b576040517f08c379a0000000000000000000000000000000000000000000000000000000008152600401611a52906132d3565b60405180910390fd5b600073ffffffffffffffffffffffffffffffffffffffff168473ffffffffffffffffffffffffffffffffffffffff161415611acb576040517f08c379a0000000000000000000000000000000000000000000000000000000008152600401611ac2906132d3565b60405180910390fd5b611ad885858560016128b8565b611ae8600084846000015161184b565b6001600d60008773ffffffffffffffffffffffffffffffffffffffff1673ffffffffffffffffffffffffffffffffffffffff16815260200190815260200160002060000160008282829054906101000a90046fffffffffffffffffffffffffffffffff160392506101000a8154816fffffffffffffffffffffffffffffffff02191690836fffffffffffffffffffffffffffffffff1602179055506001600d60008673ffffffffffffffffffffffffffffffffffffffff1673ffffffffffffffffffffffffffffffffffffffff16815260200190815260200160002060000160008282829054906101000a90046fffffffffffffffffffffffffffffffff160192506101000a8154816fffffffffffffffffffffffffffffffff02191690836fffffffffffffffffffffffffffffffff16021790555083600c600085815260200190815260200160002060000160006101000a81548173ffffffffffffffffffffffffffffffffffffffff021916908373ffffffffffffffffffffffffffffffffffffffff16021790555042600c600085815260200190815260200160002060000160146101000a81548167ffffffffffffffff021916908367ffffffffffffffff1602179055506000600184019050600073ffffffffffffffffffffffffffffffffffffffff16600c600083815260200190815260200160002060000160009054906101000a900473ffffffffffffffffffffffffffffffffffffffff1673ffffffffffffffffffffffffffffffffffffffff161415611dcd57611d2c81611835565b15611dcc578260000151600c600083815260200190815260200160002060000160006101000a81548173ffffffffffffffffffffffffffffffffffffffff021916908373ffffffffffffffffffffffffffffffffffffffff1602179055508260200151600c600083815260200190815260200160002060000160146101000a81548167ffffffffffffffff021916908367ffffffffffffffff1602179055505b5b50828473ffffffffffffffffffffffffffffffffffffffff168673ffffffffffffffffffffffffffffffffffffffff167fddf252ad1be2c89b69c2b068fc378daa952ba7f163c4a11628f55a4df523b3ef60405160405180910390a4611e3685858560016128be565b5050505050565b826000600b60003373ffffffffffffffffffffffffffffffffffffffff1673ffffffffffffffffffffffffffffffffffffffff16815260200190815260200160002054601054611e8d91906134d9565b10158015611ee75750600b60003373ffffffffffffffffffffffffffffffffffffffff1673ffffffffffffffffffffffffffffffffffffffff16815260200190815260200160002054601054611ee391906134d9565b8111155b611f26576040517f08c379a0000000000000000000000000000000000000000000000000000000008152600401611f1d90613193565b60405180910390fd5b60006001549050600073ffffffffffffffffffffffffffffffffffffffff168673ffffffffffffffffffffffffffffffffffffffff161415611f9d576040517f08c379a0000000000000000000000000000000000000000000000000000000008152600401611f94906132d3565b60405180910390fd5b6000851415611fe1576040517f08c379a0000000000000000000000000000000000000000000000000000000008152600401611fd8906132d3565b60405180910390fd5b600454421015611ff057600080fd5b600654421115611fff57600080fd5b61200c60008783886128b8565b84600d60008873ffffffffffffffffffffffffffffffffffffffff1673ffffffffffffffffffffffffffffffffffffffff16815260200190815260200160002060000160008282829054906101000a90046fffffffffffffffffffffffffffffffff160192506101000a8154816fffffffffffffffffffffffffffffffff02191690836fffffffffffffffffffffffffffffffff16021790555084600d60008873ffffffffffffffffffffffffffffffffffffffff1673ffffffffffffffffffffffffffffffffffffffff16815260200190815260200160002060000160108282829054906101000a90046fffffffffffffffffffffffffffffffff160192506101000a8154816fffffffffffffffffffffffffffffffff02191690836fffffffffffffffffffffffffffffffff16021790555085600c600083815260200190815260200160002060000160006101000a81548173ffffffffffffffffffffffffffffffffffffffff021916908373ffffffffffffffffffffffffffffffffffffffff16021790555042600c600083815260200190815260200160002060000160146101000a81548167ffffffffffffffff021916908367ffffffffffffffff160217905550600081905060005b868110156122aa57818873ffffffffffffffffffffffffffffffffffffffff16600073ffffffffffffffffffffffffffffffffffffffff167fddf252ad1be2c89b69c2b068fc378daa952ba7f163c4a11628f55a4df523b3ef60405160405180910390a4848015612255575061225360008984896124e2565b155b15612295576040517f08c379a000000000000000000000000000000000000000000000000000000000815260040161228c906132d3565b60405180910390fd5b818060010192505080806001019150506121da565b5080600181905550506122c060008783886128be565b505050505050565b6122d061296d565b6122d982611835565b612318576040517f08c379a000000000000000000000000000000000000000000000000000000000815260040161230f90613213565b60405180910390fd5b60008290505b6000600c60008381526020019081526020016000206040518060400160405290816000820160009054906101000a900473ffffffffffffffffffffffffffffffffffffffff1673ffffffffffffffffffffffffffffffffffffffff1673ffffffffffffffffffffffffffffffffffffffff1681526020016000820160149054906101000a900467ffffffffffffffff1667ffffffffffffffff1667ffffffffffffffff16815250509050600073ffffffffffffffffffffffffffffffffffffffff16816000015173ffffffffffffffffffffffffffffffffffffffff161461240a578092505050612419565b5080806001900391505061231e565b919050565b60008060009054906101000a900473ffffffffffffffffffffffffffffffffffffffff169050816000806101000a81548173ffffffffffffffffffffffffffffffffffffffff021916908373ffffffffffffffffffffffffffffffffffffffff1602179055508173ffffffffffffffffffffffffffffffffffffffff168173ffffffffffffffffffffffffffffffffffffffff167f8be0079c531659141344cd1fd0a4f28419497f9722a3daafe3b4186f6b6457e060405160405180910390a35050565b60006125038473ffffffffffffffffffffffffffffffffffffffff166128c4565b1561266c578373ffffffffffffffffffffffffffffffffffffffff1663150b7a0261252c611843565b8786866040518563ffffffff1660e01b815260040161254e94939291906130aa565b602060405180830381600087803b15801561256857600080fd5b505af192505050801561259957506040513d601f19601f820116820180604052508101906125969190612ccd565b60015b61261c573d80600081146125c9576040519150601f19603f3d011682016040523d82523d6000602084013e6125ce565b606091505b50600081511415612614576040517f08c379a000000000000000000000000000000000000000000000000000000000815260040161260b906132d3565b60405180910390fd5b805181602001fd5b63150b7a0260e01b7bffffffffffffffffffffffffffffffffffffffffffffffffffffffff1916817bffffffffffffffffffffffffffffffffffffffffffffffffffffffff191614915050612671565b600190505b949350505050565b606060098054612688906135c3565b80601f01602080910402602001604051908101604052809291908181526020018280546126b4906135c3565b80156127015780601f106126d657610100808354040283529160200191612701565b820191906000526020600020905b8154815290600101906020018083116126e457829003601f168201915b5050505050905090565b60606000821415612753576040518060400160405280600181526020017f300000000000000000000000000000000000000000000000000000000000000081525090506128b3565b600082905060005b6000821461278557808061276e90613626565b915050600a8261277e919061344e565b915061275b565b60008167ffffffffffffffff8111156127c7577f4e487b7100000000000000000000000000000000000000000000000000000000600052604160045260246000fd5b6040519080825280601f01601f1916602001820160405280156127f95781602001600182028036833780820191505090505b5090505b600085146128ac5760018261281291906134d9565b9150600a85612821919061366f565b603061282d91906133f8565b60f81b818381518110612869577f4e487b7100000000000000000000000000000000000000000000000000000000600052603260045260246000fd5b60200101907effffffffffffffffffffffffffffffffffffffffffffffffffffffffffffff1916908160001a905350600a856128a5919061344e565b94506127fd565b8093505050505b919050565b50505050565b50505050565b6000808273ffffffffffffffffffffffffffffffffffffffff163b119050919050565b8280546128f3906135c3565b90600052602060002090601f016020900481019282612915576000855561295c565b82601f1061292e57805160ff191683800117855561295c565b8280016001018555821561295c579182015b8281111561295b578251825591602001919060010190612940565b5b50905061296991906129a7565b5090565b6040518060400160405280600073ffffffffffffffffffffffffffffffffffffffff168152602001600067ffffffffffffffff1681525090565b5b808211156129c05760008160009055506001016129a8565b5090565b60006129d76129d284613353565b61332e565b9050828152602081018484840111156129ef57600080fd5b6129fa848285613581565b509392505050565b6000612a15612a1084613384565b61332e565b905082815260208101848484011115612a2d57600080fd5b612a38848285613581565b509392505050565b600081359050612a4f81613a95565b92915050565b600081359050612a6481613aac565b92915050565b600081359050612a7981613ac3565b92915050565b600081519050612a8e81613ac3565b92915050565b600082601f830112612aa557600080fd5b8135612ab58482602086016129c4565b91505092915050565b600082601f830112612acf57600080fd5b8135612adf848260208601612a02565b91505092915050565b600081359050612af781613ada565b92915050565b600060208284031215612b0f57600080fd5b6000612b1d84828501612a40565b91505092915050565b60008060408385031215612b3957600080fd5b6000612b4785828601612a40565b9250506020612b5885828601612a40565b9150509250929050565b600080600060608486031215612b7757600080fd5b6000612b8586828701612a40565b9350506020612b9686828701612a40565b9250506040612ba786828701612ae8565b9150509250925092565b60008060008060808587031215612bc757600080fd5b6000612bd587828801612a40565b9450506020612be687828801612a40565b9350506040612bf787828801612ae8565b925050606085013567ffffffffffffffff811115612c1457600080fd5b612c2087828801612a94565b91505092959194509250565b60008060408385031215612c3f57600080fd5b6000612c4d85828601612a40565b9250506020612c5e85828601612a55565b9150509250929050565b60008060408385031215612c7b57600080fd5b6000612c8985828601612a40565b9250506020612c9a85828601612ae8565b9150509250929050565b600060208284031215612cb657600080fd5b6000612cc484828501612a6a565b91505092915050565b600060208284031215612cdf57600080fd5b6000612ced84828501612a7f565b91505092915050565b600060208284031215612d0857600080fd5b600082013567ffffffffffffffff811115612d2257600080fd5b612d2e84828501612abe565b91505092915050565b600060208284031215612d4957600080fd5b6000612d5784828501612ae8565b91505092915050565b612d698161350d565b82525050565b612d788161351f565b82525050565b6000612d89826133b5565b612d9381856133cb565b9350612da3818560208601613590565b612dac8161375c565b840191505092915050565b6000612dc2826133c0565b612dcc81856133dc565b9350612ddc818560208601613590565b612de58161375c565b840191505092915050565b6000612dfb826133c0565b612e0581856133ed565b9350612e15818560208601613590565b80840191505092915050565b6000612e2e6026836133dc565b9150612e398261376d565b604082019050919050565b6000612e516026836133dc565b9150612e5c826137bc565b604082019050919050565b6000612e746038836133dc565b9150612e7f8261380b565b604082019050919050565b6000612e976022836133dc565b9150612ea28261385a565b604082019050919050565b6000612eba601b836133dc565b9150612ec5826138a9565b602082019050919050565b6000612edd601d836133dc565b9150612ee8826138d2565b602082019050919050565b6000612f006005836133ed565b9150612f0b826138fb565b600582019050919050565b6000612f236020836133dc565b9150612f2e82613924565b602082019050919050565b6000612f466014836133dc565b9150612f518261394d565b602082019050919050565b6000612f69601e836133dc565b9150612f7482613976565b602082019050919050565b6000612f8c6015836133dc565b9150612f978261399f565b602082019050919050565b6000612faf6012836133dc565b9150612fba826139c8565b602082019050919050565b6000612fd26017836133dc565b9150612fdd826139f1565b602082019050919050565b6000612ff56014836133dc565b915061300082613a1a565b602082019050919050565b60006130186015836133dc565b915061302382613a43565b602082019050919050565b600061303b6018836133dc565b915061304682613a6c565b602082019050919050565b61305a81613577565b82525050565b600061306c8285612df0565b91506130788284612df0565b915061308382612ef3565b91508190509392505050565b60006020820190506130a46000830184612d60565b92915050565b60006080820190506130bf6000830187612d60565b6130cc6020830186612d60565b6130d96040830185613051565b81810360608301526130eb8184612d7e565b905095945050505050565b600060208201905061310b6000830184612d6f565b92915050565b6000602082019050818103600083015261312b8184612db7565b905092915050565b6000602082019050818103600083015261314c81612e21565b9050919050565b6000602082019050818103600083015261316c81612e44565b9050919050565b6000602082019050818103600083015261318c81612e67565b9050919050565b600060208201905081810360008301526131ac81612e8a565b9050919050565b600060208201905081810360008301526131cc81612ead565b9050919050565b600060208201905081810360008301526131ec81612ed0565b9050919050565b6000602082019050818103600083015261320c81612f16565b9050919050565b6000602082019050818103600083015261322c81612f39565b9050919050565b6000602082019050818103600083015261324c81612f5c565b9050919050565b6000602082019050818103600083015261326c81612f7f565b9050919050565b6000602082019050818103600083015261328c81612fa2565b9050919050565b600060208201905081810360008301526132ac81612fc5565b9050919050565b600060208201905081810360008301526132cc81612fe8565b9050919050565b600060208201905081810360008301526132ec8161300b565b9050919050565b6000602082019050818103600083015261330c8161302e565b9050919050565b60006020820190506133286000830184613051565b92915050565b6000613338613349565b905061334482826135f5565b919050565b6000604051905090565b600067ffffffffffffffff82111561336e5761336d61372d565b5b6133778261375c565b9050602081019050919050565b600067ffffffffffffffff82111561339f5761339e61372d565b5b6133a88261375c565b9050602081019050919050565b600081519050919050565b600081519050919050565b600082825260208201905092915050565b600082825260208201905092915050565b600081905092915050565b600061340382613577565b915061340e83613577565b9250827fffffffffffffffffffffffffffffffffffffffffffffffffffffffffffffffff03821115613443576134426136a0565b5b828201905092915050565b600061345982613577565b915061346483613577565b925082613474576134736136cf565b5b828204905092915050565b600061348a82613577565b915061349583613577565b9250817fffffffffffffffffffffffffffffffffffffffffffffffffffffffffffffffff04831182151516156134ce576134cd6136a0565b5b828202905092915050565b60006134e482613577565b91506134ef83613577565b925082821015613502576135016136a0565b5b828203905092915050565b600061351882613557565b9050919050565b60008115159050919050565b60007fffffffff0000000000000000000000000000000000000000000000000000000082169050919050565b600073ffffffffffffffffffffffffffffffffffffffff82169050919050565b6000819050919050565b82818337600083830152505050565b60005b838110156135ae578082015181840152602081019050613593565b838111156135bd576000848401525b50505050565b600060028204905060018216806135db57607f821691505b602082108114156135ef576135ee6136fe565b5b50919050565b6135fe8261375c565b810181811067ffffffffffffffff8211171561361d5761361c61372d565b5b80604052505050565b600061363182613577565b91507fffffffffffffffffffffffffffffffffffffffffffffffffffffffffffffffff821415613664576136636136a0565b5b600182019050919050565b600061367a82613577565b915061368583613577565b925082613695576136946136cf565b5b828206905092915050565b7f4e487b7100000000000000000000000000000000000000000000000000000000600052601160045260246000fd5b7f4e487b7100000000000000000000000000000000000000000000000000000000600052601260045260246000fd5b7f4e487b7100000000000000000000000000000000000000000000000000000000600052602260045260246000fd5b7f4e487b7100000000000000000000000000000000000000000000000000000000600052604160045260246000fd5b6000601f19601f8301169050919050565b7f4f776e61626c653a206e6577206f776e657220697320746865207a65726f206160008201527f6464726573730000000000000000000000000000000000000000000000000000602082015250565b7f6e6f7420656c696769626c6520617320796f7520646f6e27742068617665207460008201527f6865206e66740000000000000000000000000000000000000000000000000000602082015250565b7f796f752063616e206f6e6c79207769746864726177206166746572206120776560008201527f656b2061667465722074686520656e64206f66206d696e740000000000000000602082015250565b7f4d6178206d696e747320706572207472616e73616374696f6e2065786365656460008201527f6564000000000000000000000000000000000000000000000000000000000000602082015250565b7f6e6f7420656c696769626c6520666f72207769746864726177616c0000000000600082015250565b7f76616c7565206973206c657373207468616e206d696e74207072696365000000600082015250565b7f2e6a736f6e000000000000000000000000000000000000000000000000000000600082015250565b7f4f776e61626c653a2063616c6c6572206973206e6f7420746865206f776e6572600082015250565b7f546f6b656e20446f6573206e6f74206578697374000000000000000000000000600082015250565b7f76616c75652073686f756c642062652067726561746572207468616e20300000600082015250565b7f63616e277420617070726f766520746f2073656c660000000000000000000000600082015250565b7f6d696e74206e6f7420656e646564207965740000000000000000000000000000600082015250565b7f6e6f7420656c696769626c6520666f7220726566756e64000000000000000000600082015250565b7f746f6b656e20646f6573206e6f74206578697374000000000000000000000000600082015250565b7f546f6b656e496e6465784f75744f66426f756e64730000000000000000000000600082015250565b7f6f776e65722063616e2774206265203020616464726573730000000000000000600082015250565b613a9e8161350d565b8114613aa957600080fd5b50565b613ab58161351f565b8114613ac057600080fd5b50565b613acc8161352b565b8114613ad757600080fd5b50565b613ae381613577565b8114613aee57600080fd5b5056fea2646970667358221220401f0bb45b3f014ec5160aec3f5ab71997587606304485ea8b4533278076eccc64736f6c63430008040033",
  "linkReferences": {},
  "deployedLinkReferences": {}
}