{
  "_format": "hh-sol-artifact-1",
  "contractName": "ERC721R",
  "sourceName": "contracts/ERC721.sol",
  "abi": [
    {
      "inputs": [
        {
          "internalType": "string",
          "name": "name_",
          "type": "string"
        },
        {
          "internalType": "string",
          "name": "symbol_",
          "type": "string"
        },
        {
          "internalType": "uint256",
          "name": "_collectionSize",
          "type": "uint256"
        },
        {
          "internalType": "uint256",
          "name": "_maxMintPerAddress",
          "type": "uint256"
        },
        {
          "internalType": "uint256",
          "name": "_mintStartTime",
          "type": "uint256"
        },
        {
          "internalType": "uint256",
          "name": "_mintEndTime",
          "type": "uint256"
        },
        {
          "internalType": "uint256",
          "name": "_mintPrice",
          "type": "uint256"
        },
        {
          "internalType": "string",
          "name": "baseURI_",
          "type": "string"
        }
      ],
      "stateMutability": "nonpayable",
      "type": "constructor"
    },
    {
      "anonymous": false,
      "inputs": [
        {
          "indexed": true,
          "internalType": "address",
          "name": "owner",
          "type": "address"
        },
        {
          "indexed": true,
          "internalType": "address",
          "name": "approved",
          "type": "address"
        },
        {
          "indexed": true,
          "internalType": "uint256",
          "name": "tokenId",
          "type": "uint256"
        }
      ],
      "name": "Approval",
      "type": "event"
    },
    {
      "anonymous": false,
      "inputs": [
        {
          "indexed": true,
          "internalType": "address",
          "name": "owner",
          "type": "address"
        },
        {
          "indexed": true,
          "internalType": "address",
          "name": "operator",
          "type": "address"
        },
        {
          "indexed": false,
          "internalType": "bool",
          "name": "approved",
          "type": "bool"
        }
      ],
      "name": "ApprovalForAll",
      "type": "event"
    },
    {
      "anonymous": false,
      "inputs": [
        {
          "indexed": true,
          "internalType": "address",
          "name": "previousOwner",
          "type": "address"
        },
        {
          "indexed": true,
          "internalType": "address",
          "name": "newOwner",
          "type": "address"
        }
      ],
      "name": "OwnershipTransferred",
      "type": "event"
    },
    {
      "anonymous": false,
      "inputs": [
        {
          "indexed": true,
          "internalType": "address",
          "name": "from",
          "type": "address"
        },
        {
          "indexed": true,
          "internalType": "address",
          "name": "to",
          "type": "address"
        },
        {
          "indexed": true,
          "internalType": "uint256",
          "name": "tokenId",
          "type": "uint256"
        }
      ],
      "name": "Transfer",
      "type": "event"
    },
    {
      "stateMutability": "payable",
      "type": "fallback"
    },
    {
      "inputs": [],
      "name": "addMoneyToPool",
      "outputs": [],
      "stateMutability": "payable",
      "type": "function"
    },
    {
      "inputs": [
        {
          "internalType": "address",
          "name": "to",
          "type": "address"
        },
        {
          "internalType": "uint256",
          "name": "tokenId",
          "type": "uint256"
        }
      ],
      "name": "approve",
      "outputs": [],
      "stateMutability": "nonpayable",
      "type": "function"
    },
    {
      "inputs": [
        {
          "internalType": "address",
          "name": "owner",
          "type": "address"
        }
      ],
      "name": "balanceOf",
      "outputs": [
        {
          "internalType": "uint256",
          "name": "",
          "type": "uint256"
        }
      ],
      "stateMutability": "view",
      "type": "function"
    },
    {
      "inputs": [],
      "name": "claimRefund",
      "outputs": [],
      "stateMutability": "nonpayable",
      "type": "function"
    },
    {
      "inputs": [
        {
          "internalType": "uint256",
          "name": "tokenId",
          "type": "uint256"
        }
      ],
      "name": "getApproved",
      "outputs": [
        {
          "internalType": "address",
          "name": "",
          "type": "address"
        }
      ],
      "stateMutability": "view",
      "type": "function"
    },
    {
      "inputs": [],
      "name": "getBaseURI",
      "outputs": [
        {
          "internalType": "string",
          "name": "",
          "type": "string"
        }
      ],
      "stateMutability": "view",
      "type": "function"
    },
    {
      "inputs": [],
      "name": "getCollectionSize",
      "outputs": [
        {
          "internalType": "uint256",
          "name": "",
          "type": "uint256"
        }
      ],
      "stateMutability": "view",
      "type": "function"
    },
    {
      "inputs": [],
      "name": "getMintEndTime",
      "outputs": [
        {
          "internalType": "uint256",
          "name": "",
          "type": "uint256"
        }
      ],
      "stateMutability": "view",
      "type": "function"
    },
    {
      "inputs": [],
      "name": "getMintPrice",
      "outputs": [
        {
          "internalType": "uint256",
          "name": "",
          "type": "uint256"
        }
      ],
      "stateMutability": "view",
      "type": "function"
    },
    {
      "inputs": [],
      "name": "getMintStartTime",
      "outputs": [
        {
          "internalType": "uint256",
          "name": "",
          "type": "uint256"
        }
      ],
      "stateMutability": "view",
      "type": "function"
    },
    {
      "inputs": [],
      "name": "getPoolBalance",
      "outputs": [
        {
          "internalType": "uint256",
          "name": "",
          "type": "uint256"
        }
      ],
      "stateMutability": "view",
      "type": "function"
    },
    {
      "inputs": [
        {
          "internalType": "address",
          "name": "owner",
          "type": "address"
        },
        {
          "internalType": "address",
          "name": "operator",
          "type": "address"
        }
      ],
      "name": "isApprovedForAll",
      "outputs": [
        {
          "internalType": "bool",
          "name": "",
          "type": "bool"
        }
      ],
      "stateMutability": "view",
      "type": "function"
    },
    {
      "inputs": [
        {
          "internalType": "address",
          "name": "to",
          "type": "address"
        },
        {
          "internalType": "uint256",
          "name": "quantity",
          "type": "uint256"
        }
      ],
      "name": "mint",
      "outputs": [],
      "stateMutability": "payable",
      "type": "function"
    },
    {
      "inputs": [],
      "name": "name",
      "outputs": [
        {
          "internalType": "string",
          "name": "",
          "type": "string"
        }
      ],
      "stateMutability": "view",
      "type": "function"
    },
    {
      "inputs": [],
      "name": "owner",
      "outputs": [
        {
          "internalType": "address",
          "name": "",
          "type": "address"
        }
      ],
      "stateMutability": "view",
      "type": "function"
    },
    {
      "inputs": [
        {
          "internalType": "uint256",
          "name": "tokenId",
          "type": "uint256"
        }
      ],
      "name": "ownerOf",
      "outputs": [
        {
          "internalType": "address",
          "name": "",
          "type": "address"
        }
      ],
      "stateMutability": "view",
      "type": "function"
    },
    {
      "inputs": [],
      "name": "renounceOwnership",
      "outputs": [],
      "stateMutability": "nonpayable",
      "type": "function"
    },
    {
      "inputs": [
        {
          "internalType": "address",
          "name": "from",
          "type": "address"
        },
        {
          "internalType": "address",
          "name": "to",
          "type": "address"
        },
        {
          "internalType": "uint256",
          "name": "tokenId",
          "type": "uint256"
        }
      ],
      "name": "safeTransferFrom",
      "outputs": [],
      "stateMutability": "nonpayable",
      "type": "function"
    },
    {
      "inputs": [
        {
          "internalType": "address",
          "name": "from",
          "type": "address"
        },
        {
          "internalType": "address",
          "name": "to",
          "type": "address"
        },
        {
          "internalType": "uint256",
          "name": "tokenId",
          "type": "uint256"
        },
        {
          "internalType": "bytes",
          "name": "_data",
          "type": "bytes"
        }
      ],
      "name": "safeTransferFrom",
      "outputs": [],
      "stateMutability": "nonpayable",
      "type": "function"
    },
    {
      "inputs": [
        {
          "internalType": "address",
          "name": "operator",
          "type": "address"
        },
        {
          "internalType": "bool",
          "name": "approved",
          "type": "bool"
        }
      ],
      "name": "setApprovalForAll",
      "outputs": [],
      "stateMutability": "nonpayable",
      "type": "function"
    },
    {
      "inputs": [
        {
          "internalType": "string",
          "name": "_baseUri",
          "type": "string"
        }
      ],
      "name": "setBaseURI",
      "outputs": [],
      "stateMutability": "nonpayable",
      "type": "function"
    },
    {
      "inputs": [
        {
          "internalType": "bytes4",
          "name": "interfaceId",
          "type": "bytes4"
        }
      ],
      "name": "supportsInterface",
      "outputs": [
        {
          "internalType": "bool",
          "name": "",
          "type": "bool"
        }
      ],
      "stateMutability": "view",
      "type": "function"
    },
    {
      "inputs": [],
      "name": "symbol",
      "outputs": [
        {
          "internalType": "string",
          "name": "",
          "type": "string"
        }
      ],
      "stateMutability": "view",
      "type": "function"
    },
    {
      "inputs": [
        {
          "internalType": "uint256",
          "name": "index",
          "type": "uint256"
        }
      ],
      "name": "tokenByIndex",
      "outputs": [
        {
          "internalType": "uint256",
          "name": "",
          "type": "uint256"
        }
      ],
      "stateMutability": "view",
      "type": "function"
    },
    {
      "inputs": [
        {
          "internalType": "address",
          "name": "owner",
          "type": "address"
        },
        {
          "internalType": "uint256",
          "name": "index",
          "type": "uint256"
        }
      ],
      "name": "tokenOfOwnerByIndex",
      "outputs": [
        {
          "internalType": "uint256",
          "name": "",
          "type": "uint256"
        }
      ],
      "stateMutability": "view",
      "type": "function"
    },
    {
      "inputs": [
        {
          "internalType": "uint256",
          "name": "tokenId",
          "type": "uint256"
        }
      ],
      "name": "tokenURI",
      "outputs": [
        {
          "internalType": "string",
          "name": "",
          "type": "string"
        }
      ],
      "stateMutability": "view",
      "type": "function"
    },
    {
      "inputs": [],
      "name": "totalSupply",
      "outputs": [
        {
          "internalType": "uint256",
          "name": "",
          "type": "uint256"
        }
      ],
      "stateMutability": "view",
      "type": "function"
    },
    {
      "inputs": [
        {
          "internalType": "address",
          "name": "from",
          "type": "address"
        },
        {
          "internalType": "address",
          "name": "to",
          "type": "address"
        },
        {
          "internalType": "uint256",
          "name": "tokenId",
          "type": "uint256"
        }
      ],
      "name": "transferFrom",
      "outputs": [],
      "stateMutability": "nonpayable",
      "type": "function"
    },
    {
      "inputs": [
        {
          "internalType": "address",
          "name": "newOwner",
          "type": "address"
        }
      ],
      "name": "transferOwnership",
      "outputs": [],
      "stateMutability": "nonpayable",
      "type": "function"
    },
    {
      "inputs": [],
      "name": "withdraw",
      "outputs": [],
      "stateMutability": "view",
      "type": "function"
    }
  ],
  "bytecode": "0x608060405260646003553480156200001657600080fd5b506040516200430c3803806200430c83398181016040528101906200003c9190620002ea565b6200005c62000050620000e560201b60201c565b620000ed60201b60201c565b8383116200006957600080fd5b876002908051906020019062000081929190620001b1565b5086600a90805190602001906200009a929190620001b1565b5083600481905550856005819055508260068190555081600781905550846010819055508060099080519060200190620000d6929190620001b1565b5050505050505050506200058c565b600033905090565b60008060009054906101000a900473ffffffffffffffffffffffffffffffffffffffff169050816000806101000a81548173ffffffffffffffffffffffffffffffffffffffff021916908373ffffffffffffffffffffffffffffffffffffffff1602179055508173ffffffffffffffffffffffffffffffffffffffff168173ffffffffffffffffffffffffffffffffffffffff167f8be0079c531659141344cd1fd0a4f28419497f9722a3daafe3b4186f6b6457e060405160405180910390a35050565b828054620001bf9062000497565b90600052602060002090601f016020900481019282620001e357600085556200022f565b82601f10620001fe57805160ff19168380011785556200022f565b828001600101855582156200022f579182015b828111156200022e57825182559160200191906001019062000211565b5b5090506200023e919062000242565b5090565b5b808211156200025d57600081600090555060010162000243565b5090565b600062000278620002728462000421565b620003f8565b9050828152602081018484840111156200029157600080fd5b6200029e84828562000461565b509392505050565b600082601f830112620002b857600080fd5b8151620002ca84826020860162000261565b91505092915050565b600081519050620002e48162000572565b92915050565b600080600080600080600080610100898b0312156200030857600080fd5b600089015167ffffffffffffffff8111156200032357600080fd5b620003318b828c01620002a6565b985050602089015167ffffffffffffffff8111156200034f57600080fd5b6200035d8b828c01620002a6565b9750506040620003708b828c01620002d3565b9650506060620003838b828c01620002d3565b9550506080620003968b828c01620002d3565b94505060a0620003a98b828c01620002d3565b93505060c0620003bc8b828c01620002d3565b92505060e089015167ffffffffffffffff811115620003da57600080fd5b620003e88b828c01620002a6565b9150509295985092959890939650565b60006200040462000417565b9050620004128282620004cd565b919050565b6000604051905090565b600067ffffffffffffffff8211156200043f576200043e62000532565b5b6200044a8262000561565b9050602081019050919050565b6000819050919050565b60005b838110156200048157808201518184015260208101905062000464565b8381111562000491576000848401525b50505050565b60006002820490506001821680620004b057607f821691505b60208210811415620004c757620004c662000503565b5b50919050565b620004d88262000561565b810181811067ffffffffffffffff82111715620004fa57620004f962000532565b5b80604052505050565b7f4e487b7100000000000000000000000000000000000000000000000000000000600052602260045260246000fd5b7f4e487b7100000000000000000000000000000000000000000000000000000000600052604160045260246000fd5b6000601f19601f8301169050919050565b6200057d8162000457565b81146200058957600080fd5b50565b613d70806200059c6000396000f3fe6080604052600436106101d15760003560e01c8063714c5398116100f7578063abd70aa211610095578063c87b56dd11610064578063c87b56dd1461063f578063d0f72a711461067c578063e985e9c5146106a7578063f2fde38b146106e4576101d2565b8063abd70aa2146105ca578063b0b67c0c146105f5578063b5545a3c146105ff578063b88d4fde14610616576101d2565b80638da5cb5b116100d15780638da5cb5b1461052057806395d89b411461054b578063a22cb46514610576578063a7f93ebd1461059f576101d2565b8063714c5398146104b3578063715018a6146104de5780637155c1ea146104f5576101d2565b80632f745c591161016f5780634f6ccce71161013e5780634f6ccce7146103d357806355f804b3146104105780636352211e1461043957806370a0823114610476576101d2565b80632f745c591461033a5780633ccfd60b1461037757806340c10f191461038e57806342842e0e146103aa576101d2565b8063095ea7b3116101ab578063095ea7b31461029257806318160ddd146102bb57806323b872dd146102e65780632b9fcb961461030f576101d2565b806301ffc9a7146101ed57806306fdde031461022a578063081812fc14610255576101d2565b5b34600860008282546101e49190613641565b92505081905550005b3480156101f957600080fd5b50610214600480360381019061020f9190612eed565b61070d565b604051610221919061333f565b60405180910390f35b34801561023657600080fd5b5061023f610857565b60405161024c919061335a565b60405180910390f35b34801561026157600080fd5b5061027c60048036038101906102779190612f80565b6108e9565b60405161028991906132d8565b60405180910390f35b34801561029e57600080fd5b506102b960048036038101906102b49190612eb1565b61096e565b005b3480156102c757600080fd5b506102d0610a8b565b6040516102dd919061355c565b60405180910390f35b3480156102f257600080fd5b5061030d60048036038101906103089190612dab565b610a95565b005b34801561031b57600080fd5b50610324610aa5565b604051610331919061355c565b60405180910390f35b34801561034657600080fd5b50610361600480360381019061035c9190612eb1565b610aaf565b60405161036e919061355c565b60405180910390f35b34801561038357600080fd5b5061038c610c9f565b005b6103a860048036038101906103a39190612eb1565b610dbb565b005b3480156103b657600080fd5b506103d160048036038101906103cc9190612dab565b610f74565b005b3480156103df57600080fd5b506103fa60048036038101906103f59190612f80565b610f94565b604051610407919061355c565b60405180910390f35b34801561041c57600080fd5b5061043760048036038101906104329190612f3f565b610fe7565b005b34801561044557600080fd5b50610460600480360381019061045b9190612f80565b61107d565b60405161046d91906132d8565b60405180910390f35b34801561048257600080fd5b5061049d60048036038101906104989190612d46565b611093565b6040516104aa919061355c565b60405180910390f35b3480156104bf57600080fd5b506104c861117c565b6040516104d5919061335a565b60405180910390f35b3480156104ea57600080fd5b506104f361120e565b005b34801561050157600080fd5b5061050a611296565b604051610517919061355c565b60405180910390f35b34801561052c57600080fd5b506105356112a0565b60405161054291906132d8565b60405180910390f35b34801561055757600080fd5b506105606112c9565b60405161056d919061335a565b60405180910390f35b34801561058257600080fd5b5061059d60048036038101906105989190612e75565b61135b565b005b3480156105ab57600080fd5b506105b46114dc565b6040516105c1919061355c565b60405180910390f35b3480156105d657600080fd5b506105df6114e6565b6040516105ec919061355c565b60405180910390f35b6105fd6114f0565b005b34801561060b57600080fd5b5061061461154e565b005b34801561062257600080fd5b5061063d60048036038101906106389190612dfa565b61177a565b005b34801561064b57600080fd5b5061066660048036038101906106619190612f80565b6117d6565b604051610673919061335a565b60405180910390f35b34801561068857600080fd5b5061069161187e565b60405161069e919061355c565b60405180910390f35b3480156106b357600080fd5b506106ce60048036038101906106c99190612d6f565b611888565b6040516106db919061333f565b60405180910390f35b3480156106f057600080fd5b5061070b60048036038101906107069190612d46565b61191c565b005b60007f80ac58cd000000000000000000000000000000000000000000000000000000007bffffffffffffffffffffffffffffffffffffffffffffffffffffffff1916827bffffffffffffffffffffffffffffffffffffffffffffffffffffffff191614806107d857507f5b5e139f000000000000000000000000000000000000000000000000000000007bffffffffffffffffffffffffffffffffffffffffffffffffffffffff1916827bffffffffffffffffffffffffffffffffffffffffffffffffffffffff1916145b8061084057507f780e9d63000000000000000000000000000000000000000000000000000000007bffffffffffffffffffffffffffffffffffffffffffffffffffffffff1916827bffffffffffffffffffffffffffffffffffffffffffffffffffffffff1916145b80610850575061084f82611a14565b5b9050919050565b6060600280546108669061380c565b80601f01602080910402602001604051908101604052809291908181526020018280546108929061380c565b80156108df5780601f106108b4576101008083540402835291602001916108df565b820191906000526020600020905b8154815290600101906020018083116108c257829003601f168201915b5050505050905090565b60006108f482611a7e565b610933576040517f08c379a000000000000000000000000000000000000000000000000000000000815260040161092a906134fc565b60405180910390fd5b600e600083815260200190815260200160002060009054906101000a900473ffffffffffffffffffffffffffffffffffffffff169050919050565b60006109798261107d565b90508073ffffffffffffffffffffffffffffffffffffffff168373ffffffffffffffffffffffffffffffffffffffff1614156109ea576040517f08c379a00000000000000000000000000000000000000000000000000000000081526004016109e19061349c565b60405180910390fd5b8073ffffffffffffffffffffffffffffffffffffffff16610a09611a8c565b73ffffffffffffffffffffffffffffffffffffffff1614158015610a3b5750610a3981610a34611a8c565b611888565b155b15610a7b576040517f08c379a0000000000000000000000000000000000000000000000000000000008152600401610a729061351c565b60405180910390fd5b610a86838383611a94565b505050565b6000600154905090565b610aa0838383611b46565b505050565b6000600454905090565b6000610aba83611093565b8210610afb576040517f08c379a0000000000000000000000000000000000000000000000000000000008152600401610af29061351c565b60405180910390fd5b6000610b05610a8b565b905060008060005b83811015610c5f576000600c60008381526020019081526020016000206040518060400160405290816000820160009054906101000a900473ffffffffffffffffffffffffffffffffffffffff1673ffffffffffffffffffffffffffffffffffffffff1673ffffffffffffffffffffffffffffffffffffffff1681526020016000820160149054906101000a900467ffffffffffffffff1667ffffffffffffffff1667ffffffffffffffff16815250509050600073ffffffffffffffffffffffffffffffffffffffff16816000015173ffffffffffffffffffffffffffffffffffffffff1614610bff57806000015192505b8773ffffffffffffffffffffffffffffffffffffffff168373ffffffffffffffffffffffffffffffffffffffff161415610c515786841415610c48578195505050505050610c99565b83806001019450505b508080600101915050610b0d565b506000610c95577f4e487b7100000000000000000000000000000000000000000000000000000000600052600160045260246000fd5b5050505b92915050565b610ca7611a8c565b73ffffffffffffffffffffffffffffffffffffffff16610cc56112a0565b73ffffffffffffffffffffffffffffffffffffffff1614610d1b576040517f08c379a0000000000000000000000000000000000000000000000000000000008152600401610d129061343c565b60405180910390fd5b62093a80600654610d2c9190613641565b4211610d6d576040517f08c379a0000000000000000000000000000000000000000000000000000000008152600401610d64906133bc565b60405180910390fd5b600554610d78610a8b565b1015610db9576040517f08c379a0000000000000000000000000000000000000000000000000000000008152600401610db0906133fc565b60405180910390fd5b565b806000600b60003373ffffffffffffffffffffffffffffffffffffffff1673ffffffffffffffffffffffffffffffffffffffff16815260200190815260200160002054601054610e0b9190613722565b10158015610e655750600b60003373ffffffffffffffffffffffffffffffffffffffff1673ffffffffffffffffffffffffffffffffffffffff16815260200190815260200160002054601054610e619190613722565b8111155b610ea4576040517f08c379a0000000000000000000000000000000000000000000000000000000008152600401610e9b906133dc565b60405180910390fd5b600754341015610ee9576040517f08c379a0000000000000000000000000000000000000000000000000000000008152600401610ee09061341c565b60405180910390fd5b610f058383604051806020016040528060008152506001612086565b600354610f10610a8b565b1015610f6f576001601160003373ffffffffffffffffffffffffffffffffffffffff1673ffffffffffffffffffffffffffffffffffffffff16815260200190815260200160002060006101000a81548160ff0219169083151502179055505b505050565b610f8f8383836040518060200160405280600081525061177a565b505050565b6000610f9e610a8b565b8210610fdf576040517f08c379a0000000000000000000000000000000000000000000000000000000008152600401610fd69061351c565b60405180910390fd5b819050919050565b610fef611a8c565b73ffffffffffffffffffffffffffffffffffffffff1661100d6112a0565b73ffffffffffffffffffffffffffffffffffffffff1614611063576040517f08c379a000000000000000000000000000000000000000000000000000000000815260040161105a9061343c565b60405180910390fd5b8060099080519060200190611079929190612b30565b5050565b600061108882612511565b600001519050919050565b60008073ffffffffffffffffffffffffffffffffffffffff168273ffffffffffffffffffffffffffffffffffffffff161415611104576040517f08c379a00000000000000000000000000000000000000000000000000000000081526004016110fb9061353c565b60405180910390fd5b600d60008373ffffffffffffffffffffffffffffffffffffffff1673ffffffffffffffffffffffffffffffffffffffff16815260200190815260200160002060000160009054906101000a90046fffffffffffffffffffffffffffffffff166fffffffffffffffffffffffffffffffff169050919050565b60606009805461118b9061380c565b80601f01602080910402602001604051908101604052809291908181526020018280546111b79061380c565b80156112045780601f106111d957610100808354040283529160200191611204565b820191906000526020600020905b8154815290600101906020018083116111e757829003601f168201915b5050505050905090565b611216611a8c565b73ffffffffffffffffffffffffffffffffffffffff166112346112a0565b73ffffffffffffffffffffffffffffffffffffffff161461128a576040517f08c379a00000000000000000000000000000000000000000000000000000000081526004016112819061343c565b60405180910390fd5b6112946000612667565b565b6000600554905090565b60008060009054906101000a900473ffffffffffffffffffffffffffffffffffffffff16905090565b6060600a80546112d89061380c565b80601f01602080910402602001604051908101604052809291908181526020018280546113049061380c565b80156113515780601f1061132657610100808354040283529160200191611351565b820191906000526020600020905b81548152906001019060200180831161133457829003601f168201915b5050505050905090565b611363611a8c565b73ffffffffffffffffffffffffffffffffffffffff168273ffffffffffffffffffffffffffffffffffffffff1614156113d1576040517f08c379a00000000000000000000000000000000000000000000000000000000081526004016113c89061349c565b60405180910390fd5b80600f60006113de611a8c565b73ffffffffffffffffffffffffffffffffffffffff1673ffffffffffffffffffffffffffffffffffffffff16815260200190815260200160002060008473ffffffffffffffffffffffffffffffffffffffff1673ffffffffffffffffffffffffffffffffffffffff16815260200190815260200160002060006101000a81548160ff0219169083151502179055508173ffffffffffffffffffffffffffffffffffffffff1661148b611a8c565b73ffffffffffffffffffffffffffffffffffffffff167f17307eab39ab6107e8899845ad3d59bd9653f200f220920489ca2b5937696c31836040516114d0919061333f565b60405180910390a35050565b6000600754905090565b6000600854905090565b60003411611533576040517f08c379a000000000000000000000000000000000000000000000000000000000815260040161152a9061347c565b60405180910390fd5b34600860008282546115459190613641565b92505081905550565b6006544211611592576040517f08c379a0000000000000000000000000000000000000000000000000000000008152600401611589906134bc565b60405180910390fd5b60055461159d610a8b565b106115dd576040517f08c379a00000000000000000000000000000000000000000000000000000000081526004016115d4906134dc565b60405180910390fd5b60006115e833611093565b11611628576040517f08c379a000000000000000000000000000000000000000000000000000000000815260040161161f9061339c565b60405180910390fd5b61163b333061163633611093565b611b46565b3373ffffffffffffffffffffffffffffffffffffffff166108fc61165e33611093565b60075461166b91906136c8565b9081150290604051600060405180830381858888f19350505050158015611696573d6000803e3d6000fd5b5060011515601160003373ffffffffffffffffffffffffffffffffffffffff1673ffffffffffffffffffffffffffffffffffffffff16815260200190815260200160002060009054906101000a900460ff1615151480156116ff575060006116fd33611093565b115b1561177857600061170e610a8b565b606461171a9190613722565b905060008160085461172c9190613697565b90503373ffffffffffffffffffffffffffffffffffffffff166108fc829081150290604051600060405180830381858888f19350505050158015611774573d6000803e3d6000fd5b5050505b565b611785848484611b46565b6117918484848461272b565b6117d0576040517f08c379a00000000000000000000000000000000000000000000000000000000081526004016117c79061351c565b60405180910390fd5b50505050565b60606117e182611a7e565b611820576040517f08c379a00000000000000000000000000000000000000000000000000000000081526004016118179061345c565b60405180910390fd5b600061182a6128c2565b905060008151141561184b5760405180602001604052806000815250611876565b8061185584612954565b6040516020016118669291906132a9565b6040516020818303038152906040525b915050919050565b6000600654905090565b6000600f60008473ffffffffffffffffffffffffffffffffffffffff1673ffffffffffffffffffffffffffffffffffffffff16815260200190815260200160002060008373ffffffffffffffffffffffffffffffffffffffff1673ffffffffffffffffffffffffffffffffffffffff16815260200190815260200160002060009054906101000a900460ff16905092915050565b611924611a8c565b73ffffffffffffffffffffffffffffffffffffffff166119426112a0565b73ffffffffffffffffffffffffffffffffffffffff1614611998576040517f08c379a000000000000000000000000000000000000000000000000000000000815260040161198f9061343c565b60405180910390fd5b600073ffffffffffffffffffffffffffffffffffffffff168173ffffffffffffffffffffffffffffffffffffffff161415611a08576040517f08c379a00000000000000000000000000000000000000000000000000000000081526004016119ff9061337c565b60405180910390fd5b611a1181612667565b50565b60007f01ffc9a7000000000000000000000000000000000000000000000000000000007bffffffffffffffffffffffffffffffffffffffffffffffffffffffff1916827bffffffffffffffffffffffffffffffffffffffffffffffffffffffff1916149050919050565b600060015482109050919050565b600033905090565b82600e600084815260200190815260200160002060006101000a81548173ffffffffffffffffffffffffffffffffffffffff021916908373ffffffffffffffffffffffffffffffffffffffff160217905550818373ffffffffffffffffffffffffffffffffffffffff168273ffffffffffffffffffffffffffffffffffffffff167f8c5be1e5ebec7d5bd14f71427d1e84f3dd0314c0f7b2291e5b200ac8c7c3b92560405160405180910390a4505050565b6000611b5182612511565b90506000816000015173ffffffffffffffffffffffffffffffffffffffff16611b78611a8c565b73ffffffffffffffffffffffffffffffffffffffff161480611bd45750611b9d611a8c565b73ffffffffffffffffffffffffffffffffffffffff16611bbc846108e9565b73ffffffffffffffffffffffffffffffffffffffff16145b80611bf05750611bef8260000151611bea611a8c565b611888565b5b905080611c32576040517f08c379a0000000000000000000000000000000000000000000000000000000008152600401611c299061351c565b60405180910390fd5b8473ffffffffffffffffffffffffffffffffffffffff16826000015173ffffffffffffffffffffffffffffffffffffffff1614611ca4576040517f08c379a0000000000000000000000000000000000000000000000000000000008152600401611c9b9061351c565b60405180910390fd5b600073ffffffffffffffffffffffffffffffffffffffff168473ffffffffffffffffffffffffffffffffffffffff161415611d14576040517f08c379a0000000000000000000000000000000000000000000000000000000008152600401611d0b9061351c565b60405180910390fd5b611d218585856001612b01565b611d316000848460000151611a94565b6001600d60008773ffffffffffffffffffffffffffffffffffffffff1673ffffffffffffffffffffffffffffffffffffffff16815260200190815260200160002060000160008282829054906101000a90046fffffffffffffffffffffffffffffffff160392506101000a8154816fffffffffffffffffffffffffffffffff02191690836fffffffffffffffffffffffffffffffff1602179055506001600d60008673ffffffffffffffffffffffffffffffffffffffff1673ffffffffffffffffffffffffffffffffffffffff16815260200190815260200160002060000160008282829054906101000a90046fffffffffffffffffffffffffffffffff160192506101000a8154816fffffffffffffffffffffffffffffffff02191690836fffffffffffffffffffffffffffffffff16021790555083600c600085815260200190815260200160002060000160006101000a81548173ffffffffffffffffffffffffffffffffffffffff021916908373ffffffffffffffffffffffffffffffffffffffff16021790555042600c600085815260200190815260200160002060000160146101000a81548167ffffffffffffffff021916908367ffffffffffffffff1602179055506000600184019050600073ffffffffffffffffffffffffffffffffffffffff16600c600083815260200190815260200160002060000160009054906101000a900473ffffffffffffffffffffffffffffffffffffffff1673ffffffffffffffffffffffffffffffffffffffff16141561201657611f7581611a7e565b15612015578260000151600c600083815260200190815260200160002060000160006101000a81548173ffffffffffffffffffffffffffffffffffffffff021916908373ffffffffffffffffffffffffffffffffffffffff1602179055508260200151600c600083815260200190815260200160002060000160146101000a81548167ffffffffffffffff021916908367ffffffffffffffff1602179055505b5b50828473ffffffffffffffffffffffffffffffffffffffff168673ffffffffffffffffffffffffffffffffffffffff167fddf252ad1be2c89b69c2b068fc378daa952ba7f163c4a11628f55a4df523b3ef60405160405180910390a461207f8585856001612b07565b5050505050565b826000600b60003373ffffffffffffffffffffffffffffffffffffffff1673ffffffffffffffffffffffffffffffffffffffff168152602001908152602001600020546010546120d69190613722565b101580156121305750600b60003373ffffffffffffffffffffffffffffffffffffffff1673ffffffffffffffffffffffffffffffffffffffff1681526020019081526020016000205460105461212c9190613722565b8111155b61216f576040517f08c379a0000000000000000000000000000000000000000000000000000000008152600401612166906133dc565b60405180910390fd5b60006001549050600073ffffffffffffffffffffffffffffffffffffffff168673ffffffffffffffffffffffffffffffffffffffff1614156121e6576040517f08c379a00000000000000000000000000000000000000000000000000000000081526004016121dd9061351c565b60405180910390fd5b600085141561222a576040517f08c379a00000000000000000000000000000000000000000000000000000000081526004016122219061351c565b60405180910390fd5b60045442101561223957600080fd5b60065442111561224857600080fd5b6122556000878388612b01565b84600d60008873ffffffffffffffffffffffffffffffffffffffff1673ffffffffffffffffffffffffffffffffffffffff16815260200190815260200160002060000160008282829054906101000a90046fffffffffffffffffffffffffffffffff160192506101000a8154816fffffffffffffffffffffffffffffffff02191690836fffffffffffffffffffffffffffffffff16021790555084600d60008873ffffffffffffffffffffffffffffffffffffffff1673ffffffffffffffffffffffffffffffffffffffff16815260200190815260200160002060000160108282829054906101000a90046fffffffffffffffffffffffffffffffff160192506101000a8154816fffffffffffffffffffffffffffffffff02191690836fffffffffffffffffffffffffffffffff16021790555085600c600083815260200190815260200160002060000160006101000a81548173ffffffffffffffffffffffffffffffffffffffff021916908373ffffffffffffffffffffffffffffffffffffffff16021790555042600c600083815260200190815260200160002060000160146101000a81548167ffffffffffffffff021916908367ffffffffffffffff160217905550600081905060005b868110156124f357818873ffffffffffffffffffffffffffffffffffffffff16600073ffffffffffffffffffffffffffffffffffffffff167fddf252ad1be2c89b69c2b068fc378daa952ba7f163c4a11628f55a4df523b3ef60405160405180910390a484801561249e575061249c600089848961272b565b155b156124de576040517f08c379a00000000000000000000000000000000000000000000000000000000081526004016124d59061351c565b60405180910390fd5b81806001019250508080600101915050612423565b5080600181905550506125096000878388612b07565b505050505050565b612519612bb6565b61252282611a7e565b612561576040517f08c379a00000000000000000000000000000000000000000000000000000000081526004016125589061345c565b60405180910390fd5b60008290505b6000600c60008381526020019081526020016000206040518060400160405290816000820160009054906101000a900473ffffffffffffffffffffffffffffffffffffffff1673ffffffffffffffffffffffffffffffffffffffff1673ffffffffffffffffffffffffffffffffffffffff1681526020016000820160149054906101000a900467ffffffffffffffff1667ffffffffffffffff1667ffffffffffffffff16815250509050600073ffffffffffffffffffffffffffffffffffffffff16816000015173ffffffffffffffffffffffffffffffffffffffff1614612653578092505050612662565b50808060019003915050612567565b919050565b60008060009054906101000a900473ffffffffffffffffffffffffffffffffffffffff169050816000806101000a81548173ffffffffffffffffffffffffffffffffffffffff021916908373ffffffffffffffffffffffffffffffffffffffff1602179055508173ffffffffffffffffffffffffffffffffffffffff168173ffffffffffffffffffffffffffffffffffffffff167f8be0079c531659141344cd1fd0a4f28419497f9722a3daafe3b4186f6b6457e060405160405180910390a35050565b600061274c8473ffffffffffffffffffffffffffffffffffffffff16612b0d565b156128b5578373ffffffffffffffffffffffffffffffffffffffff1663150b7a02612775611a8c565b8786866040518563ffffffff1660e01b815260040161279794939291906132f3565b602060405180830381600087803b1580156127b157600080fd5b505af19250505080156127e257506040513d601f19601f820116820180604052508101906127df9190612f16565b60015b612865573d8060008114612812576040519150601f19603f3d011682016040523d82523d6000602084013e612817565b606091505b5060008151141561285d576040517f08c379a00000000000000000000000000000000000000000000000000000000081526004016128549061351c565b60405180910390fd5b805181602001fd5b63150b7a0260e01b7bffffffffffffffffffffffffffffffffffffffffffffffffffffffff1916817bffffffffffffffffffffffffffffffffffffffffffffffffffffffff1916149150506128ba565b600190505b949350505050565b6060600980546128d19061380c565b80601f01602080910402602001604051908101604052809291908181526020018280546128fd9061380c565b801561294a5780601f1061291f5761010080835404028352916020019161294a565b820191906000526020600020905b81548152906001019060200180831161292d57829003601f168201915b5050505050905090565b6060600082141561299c576040518060400160405280600181526020017f30000000000000000000000000000000000000000000000000000000000000008152509050612afc565b600082905060005b600082146129ce5780806129b79061386f565b915050600a826129c79190613697565b91506129a4565b60008167ffffffffffffffff811115612a10577f4e487b7100000000000000000000000000000000000000000000000000000000600052604160045260246000fd5b6040519080825280601f01601f191660200182016040528015612a425781602001600182028036833780820191505090505b5090505b60008514612af557600182612a5b9190613722565b9150600a85612a6a91906138b8565b6030612a769190613641565b60f81b818381518110612ab2577f4e487b7100000000000000000000000000000000000000000000000000000000600052603260045260246000fd5b60200101907effffffffffffffffffffffffffffffffffffffffffffffffffffffffffffff1916908160001a905350600a85612aee9190613697565b9450612a46565b8093505050505b919050565b50505050565b50505050565b6000808273ffffffffffffffffffffffffffffffffffffffff163b119050919050565b828054612b3c9061380c565b90600052602060002090601f016020900481019282612b5e5760008555612ba5565b82601f10612b7757805160ff1916838001178555612ba5565b82800160010185558215612ba5579182015b82811115612ba4578251825591602001919060010190612b89565b5b509050612bb29190612bf0565b5090565b6040518060400160405280600073ffffffffffffffffffffffffffffffffffffffff168152602001600067ffffffffffffffff1681525090565b5b80821115612c09576000816000905550600101612bf1565b5090565b6000612c20612c1b8461359c565b613577565b905082815260208101848484011115612c3857600080fd5b612c438482856137ca565b509392505050565b6000612c5e612c59846135cd565b613577565b905082815260208101848484011115612c7657600080fd5b612c818482856137ca565b509392505050565b600081359050612c9881613cde565b92915050565b600081359050612cad81613cf5565b92915050565b600081359050612cc281613d0c565b92915050565b600081519050612cd781613d0c565b92915050565b600082601f830112612cee57600080fd5b8135612cfe848260208601612c0d565b91505092915050565b600082601f830112612d1857600080fd5b8135612d28848260208601612c4b565b91505092915050565b600081359050612d4081613d23565b92915050565b600060208284031215612d5857600080fd5b6000612d6684828501612c89565b91505092915050565b60008060408385031215612d8257600080fd5b6000612d9085828601612c89565b9250506020612da185828601612c89565b9150509250929050565b600080600060608486031215612dc057600080fd5b6000612dce86828701612c89565b9350506020612ddf86828701612c89565b9250506040612df086828701612d31565b9150509250925092565b60008060008060808587031215612e1057600080fd5b6000612e1e87828801612c89565b9450506020612e2f87828801612c89565b9350506040612e4087828801612d31565b925050606085013567ffffffffffffffff811115612e5d57600080fd5b612e6987828801612cdd565b91505092959194509250565b60008060408385031215612e8857600080fd5b6000612e9685828601612c89565b9250506020612ea785828601612c9e565b9150509250929050565b60008060408385031215612ec457600080fd5b6000612ed285828601612c89565b9250506020612ee385828601612d31565b9150509250929050565b600060208284031215612eff57600080fd5b6000612f0d84828501612cb3565b91505092915050565b600060208284031215612f2857600080fd5b6000612f3684828501612cc8565b91505092915050565b600060208284031215612f5157600080fd5b600082013567ffffffffffffffff811115612f6b57600080fd5b612f7784828501612d07565b91505092915050565b600060208284031215612f9257600080fd5b6000612fa084828501612d31565b91505092915050565b612fb281613756565b82525050565b612fc181613768565b82525050565b6000612fd2826135fe565b612fdc8185613614565b9350612fec8185602086016137d9565b612ff5816139a5565b840191505092915050565b600061300b82613609565b6130158185613625565b93506130258185602086016137d9565b61302e816139a5565b840191505092915050565b600061304482613609565b61304e8185613636565b935061305e8185602086016137d9565b80840191505092915050565b6000613077602683613625565b9150613082826139b6565b604082019050919050565b600061309a602683613625565b91506130a582613a05565b604082019050919050565b60006130bd603883613625565b91506130c882613a54565b604082019050919050565b60006130e0602283613625565b91506130eb82613aa3565b604082019050919050565b6000613103601b83613625565b915061310e82613af2565b602082019050919050565b6000613126601d83613625565b915061313182613b1b565b602082019050919050565b6000613149600583613636565b915061315482613b44565b600582019050919050565b600061316c602083613625565b915061317782613b6d565b602082019050919050565b600061318f601483613625565b915061319a82613b96565b602082019050919050565b60006131b2601e83613625565b91506131bd82613bbf565b602082019050919050565b60006131d5601583613625565b91506131e082613be8565b602082019050919050565b60006131f8601283613625565b915061320382613c11565b602082019050919050565b600061321b601783613625565b915061322682613c3a565b602082019050919050565b600061323e601483613625565b915061324982613c63565b602082019050919050565b6000613261601583613625565b915061326c82613c8c565b602082019050919050565b6000613284601883613625565b915061328f82613cb5565b602082019050919050565b6132a3816137c0565b82525050565b60006132b58285613039565b91506132c18284613039565b91506132cc8261313c565b91508190509392505050565b60006020820190506132ed6000830184612fa9565b92915050565b60006080820190506133086000830187612fa9565b6133156020830186612fa9565b613322604083018561329a565b81810360608301526133348184612fc7565b905095945050505050565b60006020820190506133546000830184612fb8565b92915050565b600060208201905081810360008301526133748184613000565b905092915050565b600060208201905081810360008301526133958161306a565b9050919050565b600060208201905081810360008301526133b58161308d565b9050919050565b600060208201905081810360008301526133d5816130b0565b9050919050565b600060208201905081810360008301526133f5816130d3565b9050919050565b60006020820190508181036000830152613415816130f6565b9050919050565b6000602082019050818103600083015261343581613119565b9050919050565b600060208201905081810360008301526134558161315f565b9050919050565b6000602082019050818103600083015261347581613182565b9050919050565b60006020820190508181036000830152613495816131a5565b9050919050565b600060208201905081810360008301526134b5816131c8565b9050919050565b600060208201905081810360008301526134d5816131eb565b9050919050565b600060208201905081810360008301526134f58161320e565b9050919050565b6000602082019050818103600083015261351581613231565b9050919050565b6000602082019050818103600083015261353581613254565b9050919050565b6000602082019050818103600083015261355581613277565b9050919050565b6000602082019050613571600083018461329a565b92915050565b6000613581613592565b905061358d828261383e565b919050565b6000604051905090565b600067ffffffffffffffff8211156135b7576135b6613976565b5b6135c0826139a5565b9050602081019050919050565b600067ffffffffffffffff8211156135e8576135e7613976565b5b6135f1826139a5565b9050602081019050919050565b600081519050919050565b600081519050919050565b600082825260208201905092915050565b600082825260208201905092915050565b600081905092915050565b600061364c826137c0565b9150613657836137c0565b9250827fffffffffffffffffffffffffffffffffffffffffffffffffffffffffffffffff0382111561368c5761368b6138e9565b5b828201905092915050565b60006136a2826137c0565b91506136ad836137c0565b9250826136bd576136bc613918565b5b828204905092915050565b60006136d3826137c0565b91506136de836137c0565b9250817fffffffffffffffffffffffffffffffffffffffffffffffffffffffffffffffff0483118215151615613717576137166138e9565b5b828202905092915050565b600061372d826137c0565b9150613738836137c0565b92508282101561374b5761374a6138e9565b5b828203905092915050565b6000613761826137a0565b9050919050565b60008115159050919050565b60007fffffffff0000000000000000000000000000000000000000000000000000000082169050919050565b600073ffffffffffffffffffffffffffffffffffffffff82169050919050565b6000819050919050565b82818337600083830152505050565b60005b838110156137f75780820151818401526020810190506137dc565b83811115613806576000848401525b50505050565b6000600282049050600182168061382457607f821691505b6020821081141561383857613837613947565b5b50919050565b613847826139a5565b810181811067ffffffffffffffff8211171561386657613865613976565b5b80604052505050565b600061387a826137c0565b91507fffffffffffffffffffffffffffffffffffffffffffffffffffffffffffffffff8214156138ad576138ac6138e9565b5b600182019050919050565b60006138c3826137c0565b91506138ce836137c0565b9250826138de576138dd613918565b5b828206905092915050565b7f4e487b7100000000000000000000000000000000000000000000000000000000600052601160045260246000fd5b7f4e487b7100000000000000000000000000000000000000000000000000000000600052601260045260246000fd5b7f4e487b7100000000000000000000000000000000000000000000000000000000600052602260045260246000fd5b7f4e487b7100000000000000000000000000000000000000000000000000000000600052604160045260246000fd5b6000601f19601f8301169050919050565b7f4f776e61626c653a206e6577206f776e657220697320746865207a65726f206160008201527f6464726573730000000000000000000000000000000000000000000000000000602082015250565b7f6e6f7420656c696769626c6520617320796f7520646f6e27742068617665207460008201527f6865206e66740000000000000000000000000000000000000000000000000000602082015250565b7f796f752063616e206f6e6c79207769746864726177206166746572206120776560008201527f656b2061667465722074686520656e64206f66206d696e740000000000000000602082015250565b7f4d6178206d696e747320706572207472616e73616374696f6e2065786365656460008201527f6564000000000000000000000000000000000000000000000000000000000000602082015250565b7f6e6f7420656c696769626c6520666f72207769746864726177616c0000000000600082015250565b7f76616c7565206973206c657373207468616e206d696e74207072696365000000600082015250565b7f2e6a736f6e000000000000000000000000000000000000000000000000000000600082015250565b7f4f776e61626c653a2063616c6c6572206973206e6f7420746865206f776e6572600082015250565b7f546f6b656e20446f6573206e6f74206578697374000000000000000000000000600082015250565b7f76616c75652073686f756c642062652067726561746572207468616e20300000600082015250565b7f63616e277420617070726f766520746f2073656c660000000000000000000000600082015250565b7f6d696e74206e6f7420656e646564207965740000000000000000000000000000600082015250565b7f6e6f7420656c696769626c6520666f7220726566756e64000000000000000000600082015250565b7f746f6b656e20646f6573206e6f74206578697374000000000000000000000000600082015250565b7f546f6b656e496e6465784f75744f66426f756e64730000000000000000000000600082015250565b7f6f776e65722063616e2774206265203020616464726573730000000000000000600082015250565b613ce781613756565b8114613cf257600080fd5b50565b613cfe81613768565b8114613d0957600080fd5b50565b613d1581613774565b8114613d2057600080fd5b50565b613d2c816137c0565b8114613d3757600080fd5b5056fea2646970667358221220d784da5e953be7cca3ba73fc8b086f5fe24c509b7d93371ba5752cc874a61eda64736f6c63430008040033",
  "linkReferences": {},
  "deployedLinkReferences": {}
}